:020000041000EA
:1000000000B5324B212058609868022188439860DF
:10001000D860186158612E4B002199600221596106
:100020000121F02299502B49196001219960352056
:1000300000F044F80222904214D00621196600F024
:1000400034F8196E01211966002018661A6600F04E
:100050002CF8196E196E196E052000F02FF8012189
:100060000842F9D1002199601B49196000215960AB
:100070001A491B48016001219960EB211966A021F2
:10008000196600F012F800219960164914480160C1
:100090000121996001BC002800D000471248134993
:1000A000086003C880F30888084703B5996A0420EC
:1000B0000142FBD001200142F8D103BD02B5186610
:1000C0001866FFF7F2FF186E186E02BD00000240BE
:1000D000000000180000070000035F00212200005C
:1000E000F4000018222000A00001001008ED00E03C
:1000F00000000000000000000000000074B24E7A12
:1001000000200420F7010010C3010010C5010010F9
:10011000C1010010C1010010C1010010C101001097
:10012000C1010010C1010010C1010010C701001081
:10013000C1010010C1010010C9010010CB01001065
:10014000CD010010CD010010CD010010CD01001037
:10015000CD010010CD010010CD010010CD01001027
:10016000CD010010CD010010CD010010CD01001017
:10017000CD010010CD010010CD010010CD01001007
:10018000CD010010CD010010CD010010CD010010F7
:10019000CD010010CD010010CD010010CD010010E7
:1001A000CD010010CD010010CD010010CD010010D7
:1001B000CD010010CD010010CD010010CD010010C7
:1001C00000BE00BE00BE00BE00BE00BE00F04BF888
:1001D000103800BEF2EB887188610610A461061029
:1001E0003402001090A31AE700202149086006C8D5
:1001F00081F3088810471F48006800282FD10DA4FC
:100200000ECC002902D000F012F8F9E71A491B4A77
:10021000002000E001C19142FCD1194988471949E9
:1002200088471949884700BEFDE701C901C29A42C3
:10023000FBD37047A4610610C0000020A02400205A
:100240008485061000000420000004208485061028
:1002500000100420001004200000000070470B482C
:1002600007F0A0F80047EFF30580C0B27047000028
:1002700008ED00E0000000D0A02400201CBB0020FE
:10028000F1560010B91E0010195800105756000002
:1002900006005250ABB36053603C0510060052504C
:1002A000861C0302703C0510060052505422A29D89
:1002B0007C3C051005005250DE65F468848506100C
:1002C000F8B5C04606480749091A8B10C90FC91866
:1002D00010B5491003D0044B002B00D0984710BD37
:1002E000A0240020A024002000000000054B10B531
:1002F000002B03D00449054800E000BFFFF7E2FFF0
:1003000010BDC04600000000A8B90020E8B30410EA
:10031000F0B5D6464F464646026A8369103A050054
:100320000C00C0B593420BD01A0043CC43C22168E5
:1003300010331160AB61E0BCBA46B146A846F0BDCF
:10034000466A4169771ABA1091463200501E8241BE
:100350004846821AE86952011B1A1B11D318A86873
:100360002A69121A12119B183E4A934277D02B68C1
:100370006A689846F31A9B10D31A012B14D980206F
:10038000800008F015FD7060AB6943CC43C31A00D0
:10039000236813606B6A1A1D6A6280225B68920090
:1003A0009A18EB612A62C5E74B46023399465B0017
:1003B0009A4234D8161E00D1012680230232B61884
:1003C0009B059E4243D2B00008F0F2FC4B468246A9
:1003D000F31A6A6A5B089B006969534404329846C1
:1003E000914203D01800521A3DF0EAFB6968286870
:1003F000890008F0EDFC53466E602B608022434676
:10040000920094463E006B611B684644EB60634477
:100410002B6133686E62EB6163442B62AFE74B463E
:10042000D31A5B089B0098440436414506D9B14273
:10043000E4D04046721A3DF0C3FBDFE7B142DDD0A5
:10044000721A381D801A40443DF0BAFBD6E780236B
:10045000DB059E4201D31BF059FE1BF047FE02480C
:100460001BF0A4FEFFFFFF07E8B30410F0B51A4C21
:100470001A4F23681A49193323603B68194D0E68D7
:10048000D9006918496818487143026889B019325F
:1004900002608A4219D90133542B18D83B600022DC
:1004A000DB00026064320792EA1852680F4C724314
:1004B0000692EB586A4605932300103323CB23C2E0
:1004C00003CB03C20FCC01F0F1FE09B0F0BD002355
:1004D0003B602360E3E7C046C4280020BC2800201E
:1004E000441100206C110020C0280020C0B9002059
:1004F000F0B5DE46454657464E460122E0B500259A
:100500005F4B32271A705F4B95B01A705E4B5F4E8F
:100510001D705F4B06AC1D70022398460293083392
:10052000200032210595049503950193313228333B
:10053000009701F0A9FE3300220043CA43C343CA17
:1005400043C343CA43C34346524E0293123364210A
:1005500020003222059504950395019300975033AE
:1005600001F092FE330023CC23C307CC07C307CC92
:1005700007C3494B1B78002B06D015B0F0BCBB4617
:10058000B246A946A046F0BD444B98469E68DF6837
:100590001B699A4643465B6999461C1D43465D6A42
:1005A0000435AC4206D2802101CC890008F010FC51
:1005B000A542F8D8434652461A624A469E61DF6118
:1005C0005A62374B98469B689A464346DB68994681
:1005D00043465E695D6A341D04351F69AC4206D22C
:1005E000802101CC890008F0F3FBA542F8D84346EE
:1005F00052469A614A465E621F62DA61294B994609
:100600009E68DF681B699B464B465B699A461C1DCA
:100610004B465D6A0435AC4206D2802101CC89008C
:1006200008F0D6FBA542F8D84B465A461A62524605
:100630005A620322002501249E61DF611A4B5A6130
:1006400006329A600632DA601D6130C33AF0D8FC97
:10065000122106F0D9FE4046109110A9129511946E
:100660001394FFF755FE3AF0CBFC052106F0CCFEC3
:100670000E4E89008B590E4D2B600E4B1C707CE783
:10068000141400204C11002018BB0020E8B60020F4
:1006900015BB002078B7002015140020B8240020D6
:1006A000A8B70020E0250020E4B900205011002068
:1006B000A4B7002017BB0020F0B54546DE465746DC
:1006C0004E46E0B5CD4B95B00E931B780500022B3E
:1006D0004BD0032B00D184E0002B09D0012B00D19B
:1006E000CCE215B0F0BCBB46B246A946A046F0BD70
:1006F000C34C2378002B71D00127C24B1F70FFF72A
:10070000B5FEC14B28001968984606F0A5FE0E1EDE
:1007100000D1C0E2642E00D112E31E21280006F0B1
:100720009BFE002900D0CFE00E9B1B78012B00D14F
:10073000CAE0B64A516993681669976922000C00AD
:1007400094469F4200D1C1E25A68D968986852180D
:1007500019685A600918196010339E42F1D180223D
:100760006368920004349E18EBE7122003F0A0F8AF
:1007700000281BD0A64B1B78002B00D1A0E2002341
:100780000E9AA44C137064330793323B0693A24B2A
:100790006A4605932300103323CB23C203CB03C245
:1007A0000FCC01F083FDC82003F0A2F8172003F05E
:1007B0007FF8002804D0964B1A78002A00D1AAE2CC
:1007C000142003F075F8002800D18AE7904B1A78BE
:1007D000002A00D185E700221A7061E0FFF788FE49
:1007E0007FE7122003F064F8002823D08B4B1B789E
:1007F000002B00D08AE28A4B1B78002B00D1D6E276
:10080000DC22814B1A60C82003F072F802230E9A92
:10081000804C137062330793323B06937E4B6A46DB
:1008200005932300103323CB23C203CB03C20FCC89
:1008300001F03CFD172003F029F800281DD0774A6D
:100840001378002B19D176490878002800D1A5E249
:1008500001200B70107064230793463B0693E1233D
:10086000704CDB00059323006A46103323CB23C270
:1008700003CB03C20FCC01F019FD142003F006F8DE
:10088000002800D12DE7684A1378002B00D028E714
:1008900063490878002800D177E201200B701070BE
:1008A00064230793463B0693E1235E4CDB000593EC
:1008B00023006A46103323CB23C203CB03C20FCCE1
:1008C00001F0F4FC0DE764460A21280006F0C4FD9F
:1008D000002900D005E7554B9A68984693461B6857
:1008E0009B444346DA685B689146514A99441069D3
:1008F0009368566995690A929D4210D05A68D968E2
:100900009F68521819685A60C919196010339842C3
:10091000F2D180227368920004369818ECE7162012
:1009200002F0C6FF00280BD05B46002B08DB01233A
:1009300042465B421360002353609368013B93601F
:10094000152002F0B5FF00280AD05B46112B07DC0A
:100950004246012313600023536093680133936080
:10096000122002F0A5FF002800D0F9E1132002F0C8
:100970009FFF002804D000230E9A237002331370C7
:100980000126224D274F2B69AC6809936B699A4663
:10099000AB690C930B970C9BA34200D186E00396A6
:1009A0000296E268636849469B180193A26823682F
:1009B00058469B1800930122012302F0A5FE00284F
:1009C00038D123686268112B6CD92A69AB68103A58
:1009D000934257D01033AB60099B1034A342DAD155
:1009E00004239C46E24453461C6880239B009C469B
:1009F000A44463460B9F0993CCE7C046151400201E
:100A000017BB002019BB002048110020A8B7002008
:100A10001414002078B70020C40900004C110020F5
:100A200018BB0020E8B6002015BB0020E4B9002068
:100A3000B8240020434642461B69013313616423F6
:100A40000793463B0693FA230B9A9B0010320593BB
:100A500013006A4683CB83C203CB03C20B9B0FCB2D
:100A600001F024FC3AF0CCFA122106F0CDFC64230C
:100A7000636000232A69A360AB68103A2160E660D6
:100A80009342A7D18021E868890008F0A1F96B6939
:100A90001A1D6A6180225B6892009A18EB602A61D5
:100AA000AB6099E7013A0E2A8FD895E7C3460A9BB7
:100AB000C34F1A699E680B925A699B690F920C93F7
:100AC000C04B0D930C9BB34200D190E00D9B30685E
:100AD0001A699C6890465A699B69924671680993A5
:100AE000099BA3421DD00123039302936368012253
:100AF000019323680093012302F006FE002824D10D
:100B0000306871681034A045EAD104239C46E24461
:100B100053461C6880239B009846099BA044A3422F
:100B2000E1D1112849D80639092946D80B9B10363E
:100B3000B342C7D10F9B04331E680F9380239B00E1
:100B40009C46B44463460B93BCE75B465A465B69DC
:100B500001335361642307939946463B0693D73389
:100B6000FF3305933B006A46103323CB23C203CBEC
:100B700003C2BA68FB687968386801F097FB3AF0FD
:100B80003FFA122106F040FC4B4663600023994671
:100B9000A3600133E36021603AF032FA122106F0DB
:100BA00033FC0A235B4273604B46080031600A2124
:100BB000B360013BF3604942A4E70A990A698B6874
:100BC000103A934202D010338B60AFE70C00C86834
:100BD0008021890008F0FCF863691A1D6261802297
:100BE0005B6892009A18E3602261A3609EE70D9B08
:100BF000D8461D699B465F699E699C68012399469A
:100C000043460E9ABA46B0462F001E005D469346F4
:100C1000A04500D165E523686268112B0ED8013A22
:100C20000E2A0BD81034A742F2D104239C46E2448A
:100C300053461C6880239B00E718E9E72A69AB68E4
:100C4000103A93420BD01033AB607369002B03D181
:100C50005B464A461A70E5E7013B7361E2E7802193
:100C6000E868890008F0B4F86B691A1D6A6180228F
:100C70005B6892009A18EB602A61E5E7132002F0A6
:100C800005FE002800D12CE500224F4B1A700223EC
:100C90000E9A137025E53AF0B3F9122106F0B4FB71
:100CA000484B1091180010A9129611971397FFF74F
:100CB0002FFB43462800196806F0CEFB0E0029E5FD
:100CC00003230E9A414C137061335DE53D4B64463E
:100CD0009B465A461669976952699B680432944646
:100CE000220064469446BB4200D1ECE55A68D968BC
:100CF0009868521819685A600918196010339E4292
:100D0000F1D1802208CC92009E18ECE79622304B5D
:100D100052001A6077E501321A7064230793463B4C
:100D20000693E123264CDB00059323006A4610332B
:100D300023CB23C203CB03C20FCC01F0B7FA3FE5AC
:100D40003AF05EF9122106F05FFB012300221091B8
:100D5000204810A9119312921393FFF7D9FADCE4FB
:100D600043460A999868DB680A6A9A468B69103A82
:100D70000B90934234D052465A6000229A60013A56
:100D80001860DA6010338B61F0E5134B1A78002A93
:100D900000D185E5012218700A7081E50F4B1A78A1
:100DA000002A00D157E5012218700A7053E50B4B59
:100DB0001B78002B00D126E59622054B1A6022E510
:100DC000E8B60020E025002017BB002078B70020FF
:100DD00048110020A8B700204C11002015BB0020AE
:100DE0004E6A49693200501E82410A98771AC069DA
:100DF000BD101B1AAA1A0A9852011B11D3180269B6
:100E00008068121A12119B183F4A934277D00A9AAF
:100E10000CCAB01A8010181A012819D98020800035
:100E200007F0C6FF0A9970608B690B9A1A605246E8
:100E30005A6000229A60013ADA604B6A1A1D4A62CF
:100E400080225B6892009A18CB610A628B618DE503
:100E500002356800834226D95B1B5B089B00D518CE
:100E6000A94216D90436B14203D02800721A3CF0C8
:100E7000A7FE802189008C460A9A2B68EE19D36060
:100E80006344136133685561D361634456621362EE
:100E9000C4E7321D9142ECD0521A381D801A28182E
:100EA0003CF08EFEE5E71E1E00D101260233F61847
:100EB00080239B059E421CD2B00007F079FF844638
:100EC0000A9B751B5A6A6D085969AD000432099076
:100ED0006544914203D02800521A3CF071FE0A9BEF
:100EE00059681868890007F073FF0A9B099A44C380
:100EF000BFE78023DB059E4204D31BF007F90348BC
:100F00001BF054F91BF0F2F8FFFFFF07E8B30410E1
:100F1000F0B5D64646464F46C0B506008CB054489C
:100F200001F0C6FB082303220221012001F07AFB15
:100F3000504B0B2198461B6800201A680F2301F0C4
:100F400025FD0F2300220021002001F06BFB002370
:100F50006A4671681372684602AC073101930094C7
:100F600025F09AFD019A444B9B1A062B00D87CE091
:100F7000424F07223900684625F0F0FE726831685A
:100F8000684625F0EBFE01236846102203215B42F0
:100F900002F032FA0098A04203D00299013107F022
:100FA00017FF0F220F230F210F2001F03BFB00231F
:100FB000716806AC200008AD0731069563602372A6
:100FC00025F06AFD62682C4B9B1A062B4DD907222F
:100FD0003900200025F0C2FE06CE200025F0BEFE1E
:100FE000012320000F2202215B4202F005FA06983D
:100FF000A84203D0A168013107F0EAFE204B5B69EB
:10100000002B28DD5E07F61AB600F61A07239A466B
:10101000002399461B4F760025603B6820002B601B
:10102000BB880F22AB80BB79AB71534663604B46E4
:10103000E37343461B681968012371185B4202F091
:10104000DBF92068A8420CD0A1680A36013107F00C
:10105000BFFE002EE0D10CB0E0BCBA46B146A846B7
:10106000F0BD0A36002ED7D1F5E707481BF09EF8F1
:101070005D2000109C990020FFFFFF3F30B404105A
:10108000E4B9002038B4041018B40410F0B5DE46FA
:101090004E4657464546E0B5DA4C95B02068DA49E9
:1010A00007F07CFA8121D94D061C2060C90528680B
:1010B00007F08BFA311C07F071FAFE239B051A1C0E
:1010C000D34902F0FBF98121D24BC9051880286869
:1010D000994607F07AFA216807F060FACE4907F0DE
:1010E0005DFAFE23CD4A9B05CD4902F0E7F9CD4FCD
:1010F000388002F0E9FB2868CB4907F066FA2168DE
:1011000007F04CFAFE22C94B9205C14902F0D6F90C
:10111000C74BC84918802868049307F056FA21681D
:1011200007F03CFAFE239B051A1CB94902F0C6F9E8
:10113000C14BC24D03931B782880022B01D100F0D4
:10114000BBFC032B00D18DE10F23FF2219210A20C4
:1011500001F068FA01F06EFC0F23FF22FF21FF204F
:1011600001F060FA02222B21142001F077FC032306
:1011700008222D21142001F03DFD022235215A20A4
:1011800001F06CFC0323082237215A2001F032FDC4
:10119000022244212D2001F061FC03230822462174
:1011A0002D2001F027FD022227213C2001F056FCD2
:1011B0000223062228213C2001F01CFD0222582196
:1011C000502001F04BFC032308225A21502001F04B
:1011D00011FD02225921142001F040FC02230622B5
:1011E0005A21142001F006FD02224A216B2001F051
:1011F00035FC022306224B216B2001F0FBFC04236B
:1012000000220021002001F00DFA0F230F220F21F0
:101210000F2001F007FA8A4B00211B6800201A6892
:101220000B2301F0B3FB002100200F23002201F06B
:10123000F9F910AB984642460E93824B0EAE13CB93
:1012400013C21B78300013700D2373600023022239
:1012500073750221013B02F0CFF80E98404503D090
:10126000B168013107F0B4FD0AAB0893002304AA6A
:10127000099313769622744B52001B68934201D156
:1012800000F004FDDC2B01D100F050FD6F4B0C226F
:101290000021009208A8002225F09CFC01230222D4
:1012A00050215B4208A802F0A7F8694B3000196989
:1012B000059302F0BBF83000FFF72AFE0E98404578
:1012C00003D0B168013107F083FD5A2374221B213A
:1012D000022001F02DFB5A2374221D21022001F06F
:1012E00027FB5C4BB1465A699C681D699F695A4B44
:1012F00092461E00A7421AD0636830685A00D2187E
:101300002368520001335900C918490015320331CE
:10131000103401F0DDFDA542ECD104239C46E244EB
:1013200053461C6880239B00E518A742E4D14B4B31
:101330005A699C6816001D699F69A74217D06368A7
:10134000B9205A00D2182368520001335900C91835
:10135000490015320331103401F0BAFDA542ECD139
:10136000802374689B000436E518A742E7D13C4B04
:101370004E461A699C6891465A699B694D469B4640
:10138000B14616005F46B346A74221D02368FF222C
:101390009A46FF210F23FF20666801F043F9534668
:1013A000013358007100C018891949004000012319
:1013B000012215310330103401F0E8FAA542E3D1DF
:1013C0005E46802374689B00BB460436E518D9E767
:1013D00002F07AFA039B4E461C78002C00D178E28A
:1013E000012C00D170E208980AAB984203D00A9908
:1013F000013107F0EDFC15B0F0BCBB46B246A94682
:10140000A046F0BDBCB800200AD7233C68110020DC
:10141000CDCC4C3F0ABB0020CDCCCC3D9A99193F96
:10142000CDCCCC3E0CBB00200000A040CDCC4C3E2F
:101430000EBB00200000C0401514002010BB00208F
:101440009C9900208CB4041048110020B8B40410FA
:10145000E4B90020A8B70020A4B70020E0250020B0
:10146000B82400200021002000220C3301F0DAF81B
:1014700001F0E0FA10AB984642460E93ED4B0EAEEB
:1014800003CB03C208237360002333744B461B88CD
:101490003C889B46E84B18009A4601F009F95846EB
:1014A00001F0C8F8042378220A21002001F0E6F8B0
:1014B00001230A2223215B42300001F09DFF20001E
:1014C00001F0B8F8042378220E21002001F0D6F8AC
:1014D000012330000A2223215B4201F08DFF01F03D
:1014E000B5F80E98404503D0B168013107F070FCA3
:1014F000434642460E93D14BD14F03CB03C21B78D8
:101500003800137009237360002373744B461C88E2
:1015100001F0CEF8200001F08DF8012318221D21E2
:1015200030005B4201F068FF012318221E213000C9
:101530005B4201F061FF012318221F2130005B4252
:1015400001F05AFF012319221D2130005B4201F0F6
:1015500053FF012319221E2130005B4201F04CFF92
:10156000012319221F2130005B4201F045FF0123B6
:101570001A221D2130005B4201F03EFF01231A2296
:101580001E2130005B4201F037FF01231A221F2188
:101590005B42300001F030FF380001F089F80F2382
:1015A00000220021002001F03DF801233000192223
:1015B0001E215B4201F020FF0E98404503D0B16828
:1015C000013107F005FC43460E939E4B2C88109387
:1015D0000423736000235046337301F069F8200040
:1015E00001F028F8072330249B46012378222100AC
:1015F000002001F043F839F003FD5B46034200D1BF
:1016000050E1012330222D2130005B42013401F0F2
:10161000F3FE382CE9D101F019F80E98404503D0BB
:10162000B168013107F0D4FB43460E93864B504618
:101630001A68109242469B889380062373600023A9
:101640002C88B37301F034F8200000F0F3FF072377
:1016500044249B46012378222100002001F00EF84B
:1016600039F0CEFC5B46034200D109E1012344225C
:10167000262130005B42013401F0BEFE4C2CE9D142
:1016800000F0E4FF0E98404503D0B168013107F047
:101690009FFB43460E936D4B2C881093042373607D
:1016A00000235046337301F003F8200000F0C2FF1E
:1016B000072358249A46012378222100002000F0B5
:1016C000DDFF39F09DFC5346034200D1C6E0012303
:1016D00058222D2130005B42013401F08DFE602C38
:1016E000E9D100F0B3FF0E98404503D0B168013155
:1016F00007F06EFB43460E931023002208A930002A
:10170000089325F011F9089B102251490E90B360FF
:1017100007F048FB0021089B0E9A7360D1544B469A
:101720001C88380000F0C4FF200000F083FF012374
:101730006D22132130005B4201F05EFE01236D2219
:10174000142130005B4201F057FE01236D22152168
:1017500030005B4201F050FE01236E221321300065
:101760005B4201F049FE01236E22142130005B42EE
:1017700001F042FE01236E22152130005B4201F090
:101780003BFE01236F22132130005B4201F034FE47
:1017900001236F22142130005B4201F02DFE012352
:1017A0006F2215215B42300001F026FE380000F068
:1017B0007FFF0F2300220021002000F033FF0123D0
:1017C00030006E2214215B4201F016FE0E98404557
:1017D00003D0B168013107F0FBFA1E4B1B78002BD8
:1017E00000D080E21C4B1B78002B00D1A2E20F231B
:1017F00000220021002000F015FF052305223121E1
:10180000232001F0C3F80F2300220021002000F064
:1018100009FF052305225921232001F0B7F8288864
:1018200000F008FF0523052245211C2001F0AEF839
:10183000E1E5C04658B404108121001064B40410DE
:10184000A52100104561737970B404104861726479
:1018500078B404104C11002018BB002039F0D0FBE4
:10186000092105F0D1FD012329315822300049B268
:101870005B42013401F0C0FD602C00D01BE730E773
:1018800039F0BEFB092105F0BFFD012322314422BE
:10189000300049B25B42013401F0AEFD4C2C00D067
:1018A000D8E6EDE639F0ACFB092105F0ADFD0123EA
:1018B00029313022300049B25B42013401F09CFDF5
:1018C000382C00D091E6A6E6FA2105F0C5FD0442C9
:1018D00012D105994820CB685A00D2188B68520063
:1018E00001335900C9181232490001F0F1FA039B83
:1018F0001B78012B00D076E5434642460E93E54B1C
:10190000E54F03CB03C21B783800137009237360C3
:1019100000237374049B1C8800F0CAFE200000F0B2
:1019200089FE01233922202130005B4201F064FD51
:1019300001233922212130005B4201F05DFD0123AA
:101940003922222130005B4201F056FD01233A2268
:10195000202130005B4201F04FFD01233A2221217A
:1019600030005B4201F048FD01233A222221300081
:101970005B4201F041FD01233B22202130005B420C
:1019800001F03AFD01233B22212130005B4201F0AE
:1019900033FD01233B2222215B42300001F02CFD6C
:1019A000380000F085FE0F2300220021002000F007
:1019B00039FE012330003A2221215B4201F01CFD57
:1019C0000E98404503D0B168013107F001FA434653
:1019D0000E931123002207A93000079324F0A4FFDF
:1019E000079B1122AD490E90B36007F0DBF900218F
:1019F000079B0E9A7360D154049B38001C8800F03A
:101A000057FE200000F016FE01234D221121300068
:101A10005B4201F0F1FC01234D22122130005B42B8
:101A200001F0EAFC01234D22132130005B4201F05A
:101A3000E3FC01234E22112130005B4201F0DCFC6B
:101A400001234E22122130005B4201F0D5FC01231C
:101A50004E22132130005B4201F0CEFC01234F22C5
:101A6000112130005B4201F0C7FC01234F221221FB
:101A700030005B4201F0C0FC01234F2213215B4286
:101A8000300001F0B9FC380000F012FE0F230022F4
:101A90000021002000F0C6FD012330004E2212215B
:101AA0005B4201F0A9FC0E98404500D19BE4B1686F
:101AB000013107F08DF996E40022002100200D335A
:101AC00000F0B0FD00F0B6FF10AB0E939846162361
:101AD0000EAE002208A93000089324F025FF089BD1
:101AE00016226F490E90B36007F05CF90021089B45
:101AF0000E9A7360D1544B461D886A4B3C8818007F
:101B00009A4600F0D5FD280000F094FD04237822C9
:101B10001E21002000F0B2FD01231E2211215B4294
:101B2000300001F069FC200000F084FD04237822DD
:101B30002221002000F0A2FD012330001E221121ED
:101B40005B4201F059FC00F081FD0E98404503D046
:101B5000B168013107F03CF943460E93524B5046B1
:101B60001093042373600023337300F0A1FDFF2062
:101B700000F060FD3C24072501237822210000208D
:101B800000F07CFD39F03CFA05426DD001233C2287
:101B90002D2130005B42013401F02EFC442CEBD1AE
:101BA00000F054FD0E98404503D0B168013107F0B4
:101BB0000FF9434642460E933C4B502403CB03C2DD
:101BC0000823736000235046337400F071FDFF203A
:101BD00000F030FD0725012378222100002000F0CD
:101BE0004DFD39F00DFA05422DD00123502226215A
:101BF00030005B42013401F0FFFB582CEBD100F0C8
:101C000025FD0E98404503D0B168013107F0E0F89A
:101C1000274B1B78002B4FD00F23002200210020E0
:101C200000F000FD0523052251211C2000F0AEFE2E
:101C3000FF2000F0FFFC052305223D21232000F0BA
:101C4000A5FEFFF7D8FB39F0DBF9092105F0DCFB35
:101C5000012322315022300049B25B42013401F0AD
:101C6000CBFB582CB7D1CAE739F0CAF9092105F0E6
:101C7000CBFB012329313C22300049B25B420134C5
:101C800001F0BAFB442C00D076E789E7094BFFF757
:101C9000FEFAC046C8B40410A5210010D4B4041044
:101CA00040B4041081210010506C617958B40410C4
:101CB000141400209CB404100F23002200210020E3
:101CC00000F0B0FC052305223D21232000F05EFE3C
:101CD000FF2000F0AFFC0523052251211C2000F05D
:101CE00055FEFFF788FB0F2300220021002000F0A3
:101CF00099FC0523052245211C2000F047FE0F23F7
:101D000000220021002000F08DFC0523052259212E
:101D1000232000F03BFE288800F08CFC05230522E0
:101D20003121232000F032FEFFF765FB0B22134B1D
:101D3000FFF7AEFA0F2300220021002000F072FC12
:101D4000052305223121232000F020FE0F2300224D
:101D50000021002000F066FC0523052259211C20EB
:101D600000F014FE288800F065FC052305225921A7
:101D7000232000F00BFEFFF73EFBC046ACB404107E
:101D8000F0B5C6464B095D1C03330600884600B516
:101D90009800082B01D808232020736007F008F86A
:101DA000736830605B1B5B089B00C718AD007D1932
:101DB0003C00AF4206D28020800006F0F9FF01C44B
:101DC000A542F8D880213A6889005318043D336150
:101DD0002B68F26059183162B26041461F220A40F6
:101DE0001201F3619B1877617562B36180BCB846DC
:101DF000F0BDC046F0B52B4887B0002407F0FCFDCD
:101E0000322300260027C8220093059404940394EB
:101E1000029401941421244800F036FA234800214A
:101E2000046044608460C460046144618461C4618E
:101E300004624462FFF7A4FF1D4800218660C7606A
:101E4000066147618661C76106624762046044605B
:101E5000FFF796FF0823174D20202C606B60AE60C3
:101E6000EF602E616F61AE61EF612E626F6206F00E
:101E70009FFF6B682860013B5B089B00C4188020B3
:101E8000800006F095FF80239B00C31820606C61E2
:101E9000E8602B616C62E8612B62A860A86107B002
:101EA000F0BDC0466CB30020C0B90020A8B7002028
:101EB000E0250020B8240020F0B5DE464E46454619
:101EC0005746E0B583B001F081FE802601F066FE42
:101ED000002301244B4D760008C5200006F0C0FB0E
:101EE000EE21890506F071FB474906F06EFB06F00E
:101EF00027FC013401C5B442EFD1002001F0C6FD3A
:101F000001F010FD01F008FD0028FBD101F0F4FC08
:101F100001F0F2FC4B2001F0B9FDFEF7E9FA01F007
:101F200039FE3A4B00279B46186000239A46384BEF
:101F3000384D994601F0D8FC060000F067FB00F030
:101F40007FFB00F083FB00F0ABFB00F0B7FB00F081
:101F5000D1FB00F007FC5B464A461B68136001F0AA
:101F600019FE5B46186001F0BFFC7B1C04003800C2
:101F70009846FEF7A1FB01F0B7FC001BE86001F0FA
:101F8000B3FC009001F0C8FC0028FBD101F0ACFCD0
:101F90005346C01A686101F0A7FC040001F0A4FCDC
:101FA00082464046FFF772F801F09EFC5346C01A85
:101FB000286101F099FC019001F09EFC01F094FC75
:101FC000804601F091FC824601F0ACFC01F08CFCF3
:101FD000861B31001048AE6005F03EFA0130002348
:101FE0000237286028280AD9009B4444E01A019B44
:101FF0003100C01A6423584305F02EFA03006B60C9
:1020000098E7C046C8990020DB0FC94064990020BA
:1020100078990020849900203F420F0010B5782164
:10202000084A782001F040FB074B80211860074BDD
:10203000074A1860802001F037FB064B1860064BFA
:10204000186010BDE42800209C990020E0280020A2
:10205000A4B90410CC2800206C990020F0B54E469D
:1020600045465746DE4690460A1452008446105AAA
:102070003E4AE0B50503154005433D4883B00540A1
:102080003C482F0304783F0F7C430F34241127076B
:10209000FF0F0C9EE4198146E4B2771E002E1FD07C
:1020A0004046002823D1324965438C4610210C1B41
:1020B000314965448C46314989461E882C48310394
:1020C0001140314301406046614349190E0C0640FE
:1020D000484609090140314319800233013FECD2DF
:1020E00003B0F0BCBB46B246A946A046F0BD0120F5
:1020F0008246604601901E884144300310403043C0
:102100001B4E304083461020001B844658466646CE
:102110007043844616486C4383465C4464441748C5
:10212000250905401448240C04402C431C800198C8
:102130000C146400245A58462503154025430540D5
:10214000FF202C0C204084464846047860465646C2
:1021500044430F342411E4B2E00830408446644420
:10216000E4B20233013FC6D2BAE7C04600000F0F07
:102170000F0F0F0F16140020F0F000000F0F0000DB
:1021800070B5049C651E002C0AD0F0260C14640067
:10219000245A264200D01C8002338918013DF5D212
:1021A00070BDC046F0B54E464546DE465746E0B5E2
:1021B0000D002F498446088885B0914601060E9A85
:1021C000090F0291561E002A4AD01C00294B2A4FA3
:1021D00003930F239A46294B0196984600E00193FA
:1021E00062462B145B009B5A52461B091340029A0D
:1021F0000126534352460F339343F0229043424605
:10220000184380B203031340FF2203433B40190CE1
:102210001140039A4D4412784A430F321211D2B240
:10222000D10831405218218846468B460903314077
:102230005E4631431026D2B25343B61A0E4A394095
:10224000934671435B44CB180D491A090A400D4966
:102250001B0C0B401A43019B22800234013BBED26F
:1022600005B0F0BCBB46B246A946A046F0BDC0468C
:1022700008BB0020161400200F0F0F0F00000F0FD7
:102280000F0F0000F0F0000010B50361029B039CEB
:102290004361059B04608361069B049CC361079BAB
:1022A00044608160C260036210BDC04684B030B536
:1022B000059206930E4A0C9B049113600D4A0E4939
:1022C00013600D9A0D4B03901A600E9A0C4B1A6016
:1022D0000B0003AA31CA31C313CA13C313CA13C3F1
:1022E0000022084B1A6030BC08BC04B01847C04636
:1022F000C8280020D4280020A0990020C4990020DC
:102300003414002068990020F0B557464E46DE464A
:102310004546E0B54E4E0400736900209B464D4B88
:1023200083B01F68B369BA46DA449846D146C144BF
:10233000A1451CD9316A002920D1474BB5681B68DB
:1023400000933B00AF4200D92B009C421BD22900D6
:10235000200205F081F8009B43431D0AF369002B1E
:1023600036D14346002B01D0444545D8E8B203B0EE
:10237000F0BCBB46B246A946A046F0BD200005F021
:102380006BF8641AD9E7F36801935B19BB422FD845
:102390009C4205D3A74244D9306964210002D8E7A2
:1023A000306964218027000205F056F87F003B1A4F
:1023B0009A46601B0199000205F04EF853465843B7
:1023C000009B000A3F1A7B431D0AF369002BC8D00B
:1023D00038F016FEF769390005F03EF87F08B3695A
:1023E000C91B98466D181AD4642DBADD6425B8E768
:1023F0003B009C42CED2D3E7E01AFFF785FF0600F0
:1024000028004946604305F027F84B460500181B95
:102410004946704305F020F84019C0B2A7E70025EF
:102420009FE70025A24599D9E01B5946000205F017
:1024300013F80135FF352D1A30696421000205F0CB
:102440000BF86843009A030A5A43150A86E7C04608
:10245000A0990020C499002034140020F0B54E4605
:1024600057464546DE46E0B5624C634F634B2668EF
:1024700099463D6885B0002E02D0616800293ED1A2
:102480006B1C3B606369A7699B465D4B00211E681E
:1024900033005B449A46BA440193AA451FD9216A86
:1024A000002927D1574B1B680293A3689846330035
:1024B000464500D94346AB422BD94146280204F099
:1024C000CBFF029B43431B0A9846E369002B47D18D
:1024D000002F01D0BD4257D8FF21434619404B463B
:1024E000186801F0F7FA05B0F0BCBB46B246A94641
:1024F000A046F0BD280004F0AFFF6D1AD2E7280017
:1025000004F0AAFF404B46431B68F6184B461E607A
:10251000B6E7E36803934344B34231D89D4205D301
:10252000AE4249D9206964210002C8E720696421CC
:102530008026000204F090FF7600331A9B46434643
:10254000E81A0399000204F087FF5B465843029B98
:10255000000A361A73431B0A9846E369002BB7D06A
:1025600038F04EFDE669310004F076FF4346760808
:10257000891BC9181CD4642938DC8846A769A7E7D9
:1025800033009D42CCD2D1E7E81BFFF7BDFE04002B
:1025900040465146684304F05FFF53460600581B0F
:1025A0005146604304F058FFFF218019014096E72F
:1025B0000023A76998468BE700239846019BAB420E
:1025C00000D882E7A81B59468026000204F044FF89
:1025D0007600361A20696421000204F03DFF704342
:1025E000029A030A5A43130A98466EE76423A769BE
:1025F00098466DE7A099002068990020C82800201F
:10260000C499002034140020D42800200F2310B5D2
:102610000F220F210F2000F041FF014B188010BD49
:1026200008BB002010B500F039FF014B188010BD29
:1026300008BB0020014B18807047C04608BB002033
:102640000F22014B1A707047161400200022064B0F
:102650001A60064B1A60064B1A68064B11685268DE
:102660001960054B1A607047D8280020DC2800202C
:10267000E0280020201400201C14002010B5044C79
:1026800020600448016004490A60044A136010BDD8
:10269000D8280020DC280020201400201C14002052
:1026A000014B024A1A607047181400205D20001088
:1026B000014B18607047C046181400200021074BDA
:1026C0001A68074B1A60074B1960074B19601168AD
:1026D000064B52681960064B1A6070479C9900209F
:1026E000E0280020D8280020DC280020201400202A
:1026F0001C1400200022024B1A60024B1A60704723
:102700007C99002080990020054A036812689B1A72
:10271000044A03600B6812689B1A0B607047C0463E
:102720007C99002080990020002808D0094B0A4A93
:1027300019680A4B18680A4B106019607047084BFB
:10274000044A19681160044A0449106808600020AE
:102750000021F1E770B300208099002074B30020BD
:102760007C9900200022024B1A60024B1A607047CD
:10277000709900207499002010B584B003900291E4
:1027800003A802A9FFF7C0FF114C124B2468124A9C
:102790001B6812680194114C0299246803980094F4
:1027A00001F004F8002811D00D4B02991B680D4868
:1027B0001A689B684A4303995218012152009B18DA
:1027C000094A0091146800210022A04704B010BDFE
:1027D0001C140020DC280020D82800202014002011
:1027E000E028002008BB00201814002030B585B078
:1027F0000390029103A802A91400FFF785FF174B6D
:1028000002991A68914226DB154B1B68D218914237
:1028100021DA144A039B1268934203DAD31AE41AAA
:1028200013000392104DE0182D685219904201DBFD
:10283000801A241A002C0EDD0C4A106802684A43E4
:10284000D218836852009B18094A0094146800212A
:1028500000220848A04705B030BDC046DC28002053
:102860001C140020D828002020140020E02800207C
:102870001814002008BB0020F0B5D6464F46464647
:10288000C0B584B00390029103A802A91700FFF716
:102890003BFF204B039A1B689A4234DB1E490968B0
:1028A0005B189A422FDA1D4B02991B68994203DA92
:1028B000591A7F1A19000293194C781824681B19A9
:1028C000984201DBC01A3F1A164E7D1E306803681D
:1028D00084684B439B185B00E418002F13DD124BF8
:1028E00001279946114B9846434600971B680022E2
:1028F0009A46002123004846D04733681A685200A0
:10290000A418013DF0D204B0E0BCBA46B146A846D6
:10291000F0BDC046D828002020140020DC2800206C
:102920001C140020E028002008BB00201814002000
:1029300070B514001D0082B00190009101A8694695
:10294000FFF7E2FE0020FFF7EFFE2200009901985A
:10295000FFF74CFF00996E1E320001980131FFF71E
:102960008BFF009901986918621E01390130FFF749
:102970003DFF01983200201800990138FFF77CFFD5
:102980000120FFF7D1FE02B070BDC046F0B5C646CB
:1029900000B588B00790069107A806A90592049390
:1029A000FFF7B2FE1C4B05AA1B6806A903931B4B3D
:1029B00007A81B6802931A4B1B680193194B1B68ED
:1029C000009304AB00F0BCFE174D06992A6813680B
:1029D00094684B4307995B185B00E418049B5A1EEC
:1029E0000492002B13D0114F114E059B002200932F
:1029F00033680021984638002300C0472B681A68C6
:102A0000049B5200A4185A1E0492002BEDD108B06A
:102A100080BCB846F0BDC0461C1400202014002025
:102A2000DC280020D8280020E028002008BB002057
:102A30001814002010B5054B054A064906481B68C6
:102A4000126809680068FFF7A1FF10BD1C14002080
:102A500020140020DC280020D8280020F0B5DE4615
:102A6000574645464E461400E0B58FB00B900A918C
:102A70000BA80AA9FFF748FE574B0A999B461B680B
:102A80000B980393554B670005931B683A0002931C
:102A9000534B091B9A461B68001B0193514B9846E8
:102AA0001B6800933B0000F02FFE002806D10FB0FA
:102AB000F0BCBB46B246A946A046F0BD0020FFF7D9
:102AC00033FE6642002C7ADB474B00250793474BC9
:102AD0000893474B09934346069316E0002E11DBFB
:102AE0004C450FD043465F004B460A990B9801377F
:102AF0003A006118C01AFFF779FE002C63D1361B2B
:102B0000013C361BAC425ADB6700A9460A9B0B9A74
:102B10004B44121B0DA901370CA80D9304970C927E
:102B2000FFF7F2FD53460D991B68AE19A846013513
:102B3000761999421BDB5A4612689B18994216DA9D
:102B4000069A0C9B126893421DDAD01A059B381A1C
:102B50001B680C921F0013003A00B84205DB1F18D7
:102B6000BC469A186746BA1A801A002814DC4346F5
:102B7000002BB3D04B460A990B98049AC91A001B34
:102B8000FFF734FEAAE7049FF8188446059800680A
:102B9000121838009445E5DA079A126894461268CC
:102BA0004A43D21863469B6852009B18099A0090CA
:102BB00012680021170008980022B847D7E70120C3
:102BC000FFF7B2FD73E74B460A990B983A00091BD1
:102BD000C01AFFF70BFE92E71C14002020140020FF
:102BE000DC280020D8280020E028002008BB002096
:102BF00018140020F0B5DE4657464E464546984626
:102C0000E0B587B00590049105A804A91600FFF768
:102C10007BFD4246434604990598891A364A770057
:102C200012685B000392354A801B12680292344A94
:102C300012680192334A126800923A0000F064FD73
:102C400000284BD0002E49DD4346002B46DD0020F6
:102C5000FFF76AFD3300734305983A000499801B1F
:102C60001D009946FFF7C2FD0023444601279A46FE
:102C70006443654301235B429C46E2445346F31A96
:102C8000002B36DD3A0049467A434A43190059433E
:102C900061438918A94206D82BE0190059436143C2
:102CA0008918A94221D9013B002BF6D1B246002652
:102CB00073009B46049905981A00C91B801BFFF7F7
:102CC00095FD0499059879185A46801B0137FFF73E
:102CD0008DFD4745CED90120FFF726FD07B0F0BC9A
:102CE000BB46B246A946A046F0BDF21A92461E0067
:102CF000DEE71E00DCE7C0461C1400202014002084
:102D0000DC280020D8280020F0B5DE4657464E4685
:102D100045469946E0B589B083460E0013A814A92C
:102D2000129C0492FFF7F0FC624D634F2B684A46F9
:102D300003933B6814990293604B139898461B6861
:102D400001935F4B9A461B680093230000F0DCFC64
:102D5000002800D18BE0002E00DA8FE0B446CC448E
:102D600063460593049B1399002B00DA91E0E31866
:102D70000693149B5846026805980792824205DC28
:102D8000801A844648466246801A81465846406802
:102D900084460698844502DC6246821AA41A52468A
:102DA000126894468A4204DD511A7618894411004B
:102DB0001392424612689A4208DD0498D31A80465C
:102DC00098444046E41813000490149288463F68E3
:102DD000C8446744B84504DB4046C71B4846C01B8F
:102DE00081462D68E7185219974201DBBF1AE41B90
:102DF0004A46002A3BDD002C39DD0798049A4243FD
:102E00005846921987685200BF182E4A1068026807
:102E1000856853435B185B00ED18159BDB0742D4B4
:102E200080235B0219000026159B013C9B0704D5FB
:102E3000230053435B00ED18524253000493224B8E
:102E4000B0469A464B4689460593059B3800009349
:102E500053464A461E6841462B00B047049B9C4699
:102E60005B461B6865445B00FF18013CEDD209B06E
:102E7000F0BCBB46B246A946A046F0BDB1444B46A5
:102E800013990593049B891B13910026002B00DBEB
:102E90006DE71A00149B94469B1A00226444149315
:102EA0000694049266E74B469E1B084B013E1900B0
:102EB0003604B9E71C14002020140020DC28002070
:102EC000D8280020E0280020181400200000FFFF70
:102ED00070B50C0007210C4B15001E6884B03368D8
:102EE000DA171140C918C91004F0B6FA0023039389
:102EF0000833C200C9003000029501940093FFF727
:102F000003FF04B070BDC0466C990020F0B54E467A
:102F1000DE4657464546E0B502782F49203AD300B1
:102F20009B180A6885B0D65C0190D0182B4B039192
:102F300002931B685A1C4CD09B1BDB051B0E98464A
:102F4000274B42469B46274B196899465B461B68B0
:102F50005218C01A01301F00824650461500C45D49
:102F6000002E0AD063B2002B24DB640001359319D4
:102F7000E4B2AB42F6DC5B461B680137D81DB842B1
:102F8000EBDA019B1A78029B1B68581C05D1039B46
:102F9000203A1868D3009B181B5C134A12688918E2
:102FA000C9184B46196005B0F0BCBB46B246A946ED
:102FB000A046F0BD39002800FFF7DEFB4B4619683C
:102FC00043465A18640001359319E4B29D42C9DBA7
:102FD000D1E700239846B3E7301400202C140020DA
:102FE00074990020709900202814002030B50B68D7
:102FF00002681C0001330B60D05C702809D11019E5
:103000008578652D05D1C0786E2802D1073423005C
:103010000C60D05C73280AD1D2185078702806D181
:103020009278722A03D105330B60683830BD0020D6
:10303000FCE7C046F0B5CE46474680B50D6803684C
:103040006A1C0A600C00995C060089B070295BD18B
:1030500059198878652857D1C8786E2854D16F1DC2
:1030600027600A7910003038C0B209280AD9110047
:103070004139052900D8A2E0110061390020052955
:1030800000D8AFE0AA1D22609446DA5D1100303905
:10309000C9B209290AD911004139052900D8A4E08B
:1030A0001700613F0021052F00D892E0EA1D226041
:1030B000904662469F5C3A00303AD2B2092A0DD956
:1030C0003A00413A052A00D892E061256D42AC46AB
:1030D000BC4465460022052D00D87DE045465D5D77
:1030E0002B00303BDBB2092B0AD92B00413B052BCF
:1030F00000D888E02F00613F0023052F00D86EE044
:10310000FFF790FA22683368995C732952D19918B5
:10311000487870284ED1897872294BD103322260C9
:103120007568AA4200D98DE004AFAD1A2E0002974F
:103130009918032D46D8002900D175E0012D69D0DA
:1031400002AB9846002D3FD1434600255E60BE1974
:103150003570029E3DF0E6FB036899463DF0E2FBC8
:103160000A22056001A9300039F064FA019B0500CC
:103170009E4261D03DF0D6FB0368222B5FD03DF02C
:10318000D1FB0368002B4AD00298B84204D04346D2
:103190009968013105F01CFEFF20236828400233A6
:1031A00023602B4C2B4B21681A68FFF791FE236894
:1031B0000833236009B0C0BCB946B046F0BD373A09
:1031C000D0B25FE70326B6E73200380005F0EAFD2B
:1031D000BAE7573AD1B269E7573FFAB27EE7573DAF
:1031E000EBB28DE7573AD0B24CE7373AD1B25DE750
:1031F00045465D5D373F2B00303BDBB2FAB2092B11
:1032000000D972E77CE7373DEBB2FFF70BFA226893
:10321000336879E70B7802AA9046137294E73DF081
:1032200081FB4B460360AFE702AB9846002D00D10F
:103230008AE7094818F08AFF084818F09FFF0748F6
:1032400018F0CCFF2B000649064818F0DFFFC046F7
:10325000709900207499002038B5041064B50410EA
:10326000E8B4041000B50410F0B557464E46DE46EB
:1032700045465B4BE0B59A461B680A009C468FB0FA
:1032800002930023624409924268814604910C93A0
:10329000002A00D19FE0534900238B465249002564
:1032A00003910AA9CF1D51490191514905915149F5
:1032B000069110E00A2C22D15346029919605B4610
:1032C00003991B6809685B1859460B600023013598
:1032D0000C95954218D2494609684C5D3C70202CEB
:1032E00037D022D8092CE5D1404B1B6819788B00C8
:1032F0005B185B00514609685B1851460B6001354D
:1033000000230C959542E6D35B46039A1B6812682E
:103310009B185A4613605346029A1A600FB0F0BCCD
:10332000BB46B246A946A046F0BD5C2C0BD1484630
:103330000CA9FFF77FFE0C9D5C3C631E9C414A4636
:10334000E3B25268C3E7002B07D03800FFF7DEFD79
:10335000F2E7019B1B681B78CCE7230007940C0065
:1033600006992A000D95089500268846059D11E0CE
:103370002968481C05D10199203B0868D900CB1861
:10338000195C43461B680132F618A35C8E190D9236
:10339000202B0AD95C2BEBD148460DA9FFF726FE5E
:1033A0000D9A3618A35C202BF4D8049B079C089D2B
:1033B0000133CAD053461B68F618099B9E42C4DDF0
:1033C0005346029A1A605B46039A1B6812689B1860
:1033D0005A461360B9E7034B9B46034B039393E7AD
:1033E00070990020749900202414002030140020CB
:1033F0002C1400202814002030B51D00040083B0D8
:10340000019101A869460092FFF77EF9019A054BE8
:1034100029001A60044B009A20001A60FFF724FF6D
:1034200003B030BD7099002074990020F0B50400FD
:103430002600184F0B0083B02021174A38000836A9
:1034400003F048FF380026603DF002FB0500030052
:1034500001900F280CD8012807D13A782272002257
:1034600020006360F25403B0F0BD0028F7D008E0FC
:103470000022200001A923F057FA0600019B2060DA
:10348000A36030002A00390005F08CFC019B2668FF
:10349000E5E7C04678B300206CB5041010B5F02401
:1034A0002401120222400F24044014431A01FF2376
:1034B00009030C4313401C43A0B210BDF0B5D6461F
:1034C0004F464646C0B51D1C161C8846041C05F018
:1034D0005FFA011C201C05F05EF8704905F075F8D4
:1034E000041C05F055FA011C071C201C05F053F8BC
:1034F0006B498246301C05F068F86949061C281C97
:1035000005F063F8041CFE204146800505F043F8F1
:10351000311C05F05AF805F0FDF84146C3B250469B
:10352000994605F052F8011CFE20800505F033F89D
:10353000311C05F04AF805F0EDF8C5B2FE20514601
:10354000800505F028F8414605F03FF8011CFE20F3
:10355000800505F020F8311C05F037F805F0DAF8A1
:10356000C3B2381C984605F0A3F8062103F04CFFBF
:10357000052900D990E04B4B89005B589F46301CD1
:1035800005F0C8F8F02300021B0118404B461F034A
:103590000743201C05F0BEF8FF2300011840074335
:1035A00043460F201840384380B2E0BCBA46B146CB
:1035B000A846F0BD201C05F0ADF8FF230401301C27
:1035C0001C4005F0A7F80F2318404B461F03F023BB
:1035D00020432D021B0138431D40284380B2E4E7FD
:1035E000201C05F097F8FF230401301C1C4005F057
:1035F00091F84B461F02F0230F221B011F40434648
:103600001040204338431B03184380B2CDE7201CF1
:1036100005F080F8FF230401301C1C4005F07AF807
:103620004B46C0B21F02F023000304430F201B01CE
:103630001F403C432840204380B2B6E7201C05F0E1
:1036400069F8FF23000118400F244B461C40044337
:10365000301C05F05FF84346F022C0B200031B02A5
:103660001201044313401C43A0B29EE7201C05F046
:1036700051F8FF23000118400F244B461C4004431F
:10368000301C05F047F8F02300021B0118400443EA
:103690002D032C43A0B288E7F02086E70000C0404D
:1036A0000000704170B50410F8B5060010200F003E
:1036B000150005F07DFB04001022002105F06CFBD5
:1036C00026606760002D02D0A5602000F8BD77431A
:1036D0000C4B78009F4211D805F06EFB0500012FBE
:1036E00008D4BB1E0222013300DB7A00002128002F
:1036F00005F052FB0123A5602373E6E70120404259
:10370000EAE7C046FCFFFF3F30B504000598039D83
:10371000844665440020A54211DBA418039A944214
:103720000DDB069C049AA44662448A4207DBC91852
:10373000049B049AC817DB0F91425841C0B230BDB8
:10374000F0B5C646146800B5A046089C069EA4467F
:1037500044460768B4443C19079D644500DD64464F
:10376000B74200DA3700E41BE743FF173C40146020
:103770000C681A68099FA2187F19BA4200DD3A0046
:10378000AC4200DA2C00121BD443E41722401A602A
:103790000368B34200DA330003600B68AB4200DA1F
:1037A0002B000B6080BCB846F0BDC04630B50400AD
:1037B000002094420EDB99420CDB039DAC46624430
:1037C000A24207DD049A0120944663448B4200DC48
:1037D0000020C0B230BDC04610B5FEF73FFE01204C
:1037E00010BDC046A022234BD205D2580123224946
:1037F00010B50868834013420ED0204A1360204A57
:10380000138801331BB21380782B06DD01235B4242
:10381000138000221B4B1A7010BD1B4B1B6898684D
:1038200013881BB2002B06DD13881BB2013B1C0161
:10383000E31A1B01C01814883C23002C08D10A6825
:10384000A021C9058C46920162441060D361E3E770
:1038500013881BB2783B5A4253413B225B4293434D
:103860000A68A021C9058C46920162447833106031
:10387000D361D1E70C040000D02800200C240050B4
:103880003C14002012BB00209C990020012383409F
:10389000054A002012681A4205D1044A10681840EF
:1038A000431E9841C0B27047649900207899002067
:1038B00001238340034A1068184043425841C0B274
:1038C0007047C0466499002010B501F005FC00293E
:1038D00005D0FA220023920003F000FE10BDFA2169
:1038E000890003F0B9FDF9E710B501F0F5FB10BD53
:1038F00010B501F06DFB10BDD021012209064B6807
:103900001B0A1A42FBD1D021012209064B681B0A6F
:103910001A42FBD07047C046014B18787047C0462A
:1039200012BB0020174A1378002B00D070470121EA
:103930001170154A1380154B1B68996813881BB2C8
:10394000002B06DD13881BB2013B1801C31A1B01B3
:10395000C91810883C23002809D1A020C00584463E
:103960000B4A1268920162441160D361DEE713884A
:103970001BB2783B5A4253413B225B42934378331C
:10398000EBE7C04612BB00203C1400209C990020AD
:10399000D0280020F0B5CE46474680B5334B87B0DF
:1039A00004000D0018683249984605F005FC802394
:1039B0005B020293C0231B0304930300802712338E
:1039C000C2011B0313432B4AFF0513403B430393E0
:1039D00001230600994629002000009307220133A5
:1039E000059705F0D5FC244B244A0293049B29003B
:1039F00013400493059A224B20001A40214B134395
:103A000005930022C02305F03DFCC02229002000C0
:103A1000C02305F079FC049B07209B009B081F43F3
:103A200043461968184B04979C4661444B1E9941C4
:103A3000063100F0AFFC43461968134B06209C4644
:103A400061444B1E9941063100F0A4FC320002ABE8
:103A50002900200005F0DEFC4B46AB4022681343F2
:103A6000236007B0C0BCB946B046F0BD3814002092
:103A700014B60410FFFFFF9F00010200FFFFF5C115
:103A8000E0830FFC071810000000E0AF10B504F051
:103A9000E7FD0B4904F085FD0A4904F099FF0A4B44
:103AA0000A491C6804F091FDFC21890504F076FDAB
:103AB00004F030FE6040064B0004000C186010BD9E
:103AC0000000C842333333408400054000FF7F4785
:103AD00084100540F0B5C646264B00B51E680400AC
:103AE00030000F0004F0BCFD011C234804F059FD18
:103AF000051C200004F0B4FD011C281C04F051FD3D
:103B0000804604F007FEC5B2280004F0AFFD011C9A
:103B1000404604F040FD8321C90504F056FD04F041
:103B2000F9FD2D01154A3304C0B21B0C05439566FF
:103B30003800536704F094FD114904F032FD114937
:103B400004F046FF071C20000F4B70430F491D680F
:103B500003F082FC04F084FD391C04F036FD04F00F
:103B6000D9FD000468400A4B000C0004186080BCBA
:103B7000B846F0BD40140020286B6E4D0000054093
:103B80000000C8426666E63F70000540102700004E
:103B900070100540D0231B065868704700B585B0EB
:103BA00001F0A6F8064B074A029300230193064B47
:103BB000009301235B4201F09FF805B000BDC046B1
:103BC000A024002018FCFFFFD9370010F0B5DE4616
:103BD00057464E464546002288218024E0B5304BAA
:103BE000304885B058509A671A5104341A5110322F
:103BF0005850DA670F3A84399A670C2000F0CAFBF4
:103C0000294B2A4A1B680D201B041B0C136002F071
:103C100079F80A2001F0DCF9254803AB02AA01A9D2
:103C200000F0FCFA002803D12248214901F010FEDF
:103C3000039A0299019800F0B5FAD0231B060024DC
:103C400001261727984602E00134202C13D03500B6
:103C5000A5402F42F8D00521280000F09BFB33003F
:103C60004246AB400121936228000022013400F05B
:103C7000A9FB202CEBD1D026002504271F3C3606BB
:103C800004E0202C18D001340135E4B2012DF8D124
:103C90000521022000F07EFB7762B761F3E7C046A2
:103CA00000000540FFFF000084000540841005402F
:103CB00090D0030088B5041005F076FC1F211A206F
:103CC00000F068FB002200211A2000F07BFB00219D
:103CD0001A2000F089FB9C23FD4DFE4A9846EA50CD
:103CE0008C27002394214646EB5189466B500431C2
:103CF00008006B50AA5110330C3E9B46AB510F3B52
:103D0000EB518A468A38943900F044FB002188231D
:103D10008022F048E850A967A9500432A9505946BA
:103D2000E850873BE9670D20AB670C3900F032FBA8
:103D30004046E84A00232A504846EB512B50504653
:103D40002B50404601212A505846A851E9510138CC
:103D5000033100F01FFBE049E04805F0A9FBD02744
:103D60000521042000F016FB58463F067862B86132
:103D7000543001F02DF958467136FF36786105212F
:103D8000073800F007FB7E620521052000F002FBEA
:103D90007C620121062000F0FDFA0121072000F0DD
:103DA000F9FA684601217C61017303A80100BC6136
:103DB0000122BE61C94847F0DFFA7C61052001F0AD
:103DC00007F936236846037303A8BC610100BE618E
:103DD0000122C24847F0D0FA7E610122C049BF48A3
:103DE00047F0CAFA352368467C61037303A8BC61B7
:103DF0000100BE610122B94847F0BEFAB94B7E61AD
:103E000019000122B5489A4647F0B6FAB22368462F
:103E10007C61037303A8BC610100BE610122AF484D
:103E200047F0AAFA50467E61011D0522AB4847F0D3
:103E3000A3FA3A2368467C61037303A8BC610100BE
:103E4000BE610122A54847F097FA7E610122A6498A
:103E5000A24847F091FA262368467C61037303A8C1
:103E6000BC610100BE6101229C4847F085FA9F4B6E
:103E70007E61190001229948994647F07DFAB723DF
:103E800068467C61037303A8BC610100BE61012226
:103E9000924847F071FA7E61012295498F4847F0B8
:103EA0006BFABB2368467C61037303A8BC61010005
:103EB000BE610122894847F05FFA7E6101228D4987
:103EC000864847F059FAC02368467C61037303A80B
:103ED000BC610100BE610122804847F04DFA7E615D
:103EE000012285497D4847F047FAC22368467C6134
:103EF000037303A8BC610100BE610122774847F04B
:103F00003BFA49467E610122744847F035FAC323E3
:103F100068467C61037303A8BC610100BE61012295
:103F20006E4847F029FA7E61012274496B4847F0D8
:103F300023FAC42368467C61037303A8BC610100B3
:103F4000BE610122654847F017FA7E6101226C4983
:103F5000624847F011FAD02368467C61037303A8D6
:103F6000BC610100BE6101225C4847F005FA7E6138
:103F700002226449594847F0FFF9C62368467C612C
:103F8000037303A8BC610100BE610122534847F0DE
:103F9000F3F97E6101225C49504847F0EDF9E023D6
:103FA00068467C61037303A8BC610100BE61012205
:103FB0004A4847F0E1F97E610E225449474847F0EC
:103FC000DBF9E12368467C61037303A8BC6101004F
:103FD000BE610122414847F0CFF97E610E224C4973
:103FE0003E4847F0C9F9212368467C61037303A862
:103FF0000100BC610122BE61384847F0BDF97C6117
:10400000732000F0E5FF11236846037303A8BC6129
:104010000100BE610122314847F0AEF9292368460C
:104020007C61037303A8BC610100BE6101222B48BF
:1040300047F0A2F92A2368467C61037303A8BC6198
:104040000100BE610122254847F096F90C20844604
:10405000E24451467E610422204847F08DF92B232B
:1040600068467C61037303A8BC610100BE61012244
:104070001A4847F081F951467E610422174847F0FB
:104080007BF92C2368467C61037303A8012201009D
:10409000BC611248BE6147F06FF97C610820BC61C9
:1040A0007E6100F0B5F980235B001A4CBB621A4FA9
:1040B00021683868FFF76EFC3A6818480026101827
:1040C000411E8841164BC0001E6023682AE0C0468E
:1040D00000000540FFFF000000127A0000C003400E
:1040E000BCB5041000B60410C0B50410C4B504106B
:1040F000C8B50410CCB50410D0B50410D4B5041064
:10410000548A0510D8B50410DCB50410E0B50410CD
:10411000F0B50410C89D0020381400200000E0AF66
:10412000D0280020194CC018C1030C43A02104332F
:104130009B00D218C9050E604A608E600C61012494
:10414000134B01211C6000F0DBF90B20114900F03A
:10415000F1F901210B2000F0D3F95B460E4A6E669F
:104160000421EE660B202E676A67AB666C6600F072
:1041700011F90A4B0A4A1B681B0C1B04136005B09B
:10418000F0BCBB46B246A946A046F0BD19004000AF
:1041900004240050E5370010FFFF000070000540C8
:1041A00070100540F0B583B005000E00140000F05B
:1041B00085F9002801D003B0F0BD154F01223B0066
:1041C00001210097053001F061FB33002A000094C3
:1041D0000121104801F042FD21002800714303F045
:1041E0003BF904000C4B002200930221042001F053
:1041F0004DFB2300002201210094052001F046FB25
:104200003B00022200210097062001F03FFBD2E78D
:10421000006CDC0200800240001BB700F0B5DE46F7
:1042200057464E464546E0B5070085B00420039347
:104230000191029201F00CFDFA21890003F00CF9C2
:1042400032238246FF33994686005644B6014F4BCF
:104250004F4AF318072493420ED901235B429C4630
:104260005346E144F61A4B46002BF0D100205DE0A6
:10427000002900D186E0062421003000614303F0CC
:10428000EBF8874242D0631E9846012CE5D01D0012
:1042900065433000290003F0DFF887424DD0A31EAC
:1042A0009B46022C4FD02D1B2900300003F0D4F880
:1042B00087424AD0E31E9B46032C61D02D1B290068
:1042C000300003F0C9F8874243D0231F9B46042CDB
:1042D00045D02D1B2900300003F0BEF8874240D0A6
:1042E000631F9B46052C42D02D1B2900300003F094
:1042F000B3F887423DD04346052B3FD03000E91F3D
:1043000003F0AAF88742B3D00624B5E70029BAD152
:10431000A04673019B1B9B00019A9B19DB00136055
:1043200042460120029B1C60039B1A6005B0F0BC52
:10433000BB46B246A946A046F0BD0029E9D0A31E5F
:104340009B46022CAFD1012496E70029B2D1D84672
:10435000DFE70029FBD0231F9B46042CB9D103249F
:104360008AE70029F3D0631F9B46052CBCD10424A7
:1043700082E70029EBD04346052BBFD105247BE71C
:10438000022479E701239846C3E7C046508EF4FF24
:1043900050F80C00094A10B5944640248300634449
:1043A0001A68C000624080341440802252011343D6
:1043B0001C60034B9C466044416010BD04C001403A
:1043C00000400140074B80009C4660440368C900E0
:1043D00092000A435A400C231A4080235B01034396
:1043E0001A60704704C00140084B80009C4660443E
:1043F000002905D0802340229B0103431A607047A7
:10440000C02340229B0103431A60F8E704C0014027
:104410000123D0228340120693629361094A40210E
:104420009446830063441A68C0004A4080311140BA
:104430008022520113431960034B9C4605236044BC
:104440004360704704C0014000400140EFF310801A
:1044500072B6034A1368002BFCD0BFF35F8F70471E
:104460002C0100D0BFF35F8F0022024B1A6080F353
:10447000108870472C0100D070B5EFF3108C72B625
:104480000D4D2B68002BFCD0BFF35F8F0724CB08AA
:10449000C618C05C01230C40A3401C00044003422A
:1044A00007D118433070BFF35F8F2C608CF31088F6
:1044B00070BD100001F0CCF92C0100D0024B18683F
:1044C0008007C00F7047C04600C006400021044B63
:1044D000044ABFF35F8F02C39342FAD17047C046CC
:1044E000000100D0800100D0044A1078431CDBB2E8
:1044F000172B00D9102313707047C04644140020B6
:1045000001238340002904D0034A1360034A136047
:104510007047034A1360FBE780E200E000E100E03F
:1045200080E100E0024B10309B688000C05870476B
:1045300000ED00E070B50D00EFF3108672B60F4A83
:104540001368002BFCD0BFF35F8F0D4B10309B68BE
:1045500084001B590B4A934203D09D4201D001F0C5
:104560008FF9074B9B681D51BFF35F8FBFF35F8FC0
:104570000022024B1A6086F3108870BD240100D01F
:1045800000ED00E0CD010010F0B5DE4657464E4686
:104590004546E0B50C0083B0EFF3108A72B65A4A74
:1045A0001368002BFCD0BFF35F8F1022914681442B
:1045B0004A46564B96009B689D59554B98469D42DE
:1045C00005D0A54216D0534FEB1B2F2B14D94F4BC0
:1045D0009B689D51BFF35F8FBFF35F8F00224A4BF3
:1045E0001A608AF3108803B0F0BCBB46B246A946F5
:1045F000A046F0BD1D00EAE7012383409B465A46D2
:10460000454B1B681A4000925A46444B1A60BFF350
:104610005F8FFBF728FE0190002803D0814501D071
:1046200001F02EF901232A009A4393689C4208D195
:104630005FE04B005B189B00FB189968A14211D00A
:104640001A00062151560029F3DA009B002B05D0F1
:104650005A46334B1A60304B1A60B8E75A462F4B14
:104660001A60B4E706215956002921DB4A00501888
:1046700080003C188046A0689860E079D8710620D8
:1046800020569871002824DBA488F81A64052415A4
:1046900044440019E0240005400D24022043988082
:1046A000204B521818789200BA1890711970CCE704
:1046B0000199002910D1FF3191711B49918019494D
:1046C0000A789A71194ADB1B5B415A43120D0A7032
:1046D000BBE7BD200002E2E7154A1649D21A083AA4
:1046E0005002400D01439980134952080A43DA8071
:1046F000ABE70621515613000029B7DA019A002AC8
:10470000EAD14546DBE7C046240100D000ED00E0D9
:10471000CD0100104814002000E100E080E100E03D
:1047200080E200E016BB002000BDFFFFAAAA000047
:104730008214002000F0FFFF00F8FFFFF8B501250C
:1047400004000543FBF78FFDEFF3108C72B6214A8E
:104750001368002BFCD0BFF35F8F1F4E2100B7689A
:104760001E4A1F4B891A49414B431B0D59B2830006
:10477000F858A8421CD00623D3568B421CD01223D3
:10478000D3568B4222D01E23D3568B4220D02A23CD
:10479000D35603208B4210D0124B1A781970A27195
:1047A000BFF35F8F00220B4B1A608CF31088F8BDAB
:1047B000B2680D48D050EFE7002043001B189B0063
:1047C000D218FF239371094B9380E5E70120F4E7AA
:1047D0000220F2E7240100D000ED00E048140020A0
:1047E000AAAA000016BB0020CD01001000BDFFFFEB
:1047F000054B064A1360064A136053609360D3600A
:1048000013615361936170478080808000E400E011
:1048100004E400E0024B9C4661448900016070475B
:104820004000003483680B4810B5844661446244FC
:104830001201090159189B185C684A6801209442CA
:1048400001D802D00020C0B210BD1A680B689A428D
:10485000F9D8F7E7FFFFFF0F10B508000B690C0050
:104860009847002802D02068616810BDE0600021F0
:104870000020FAE70A4B1968EFF3108072B60A6855
:10488000002AFCD0BFF35F8F1B68BFF35F8F00224D
:104890001A6080F3108840BF002000217047C04696
:1048A000F4BA0020F8B5574645464E46DE46E0B518
:1048B00099460CAB1C780DAB1B78070090469A46C6
:1048C0000568002C44D1AC7B002C3BD066002968E5
:1048D0003619033E89194B78AB73002B00D1EB736B
:1048E00000238B704B700B702E4BE218BB681201CB
:1048F0009B1842461A604A465A600A9A9A600B9A76
:10490000DA6000238B704B700B706B7B9B46002B27
:1049100032D022005946A8686B68984700281DD0FD
:104920005B46584629685B005B448E19033BB070B8
:10493000CA18CB5C002B00D073705B4614706B738D
:104940005C451AD0F0BCBB46B246A946A046F8BDAD
:10495000660029683619033E8919C5E75B465B0086
:104960002A685B44033BD3189C709119925D002A1E
:1049700000D05A705B460B706C7342464B46387DD4
:1049800000F034FC051E02D05346002B04D00E9BD1
:10499000002BD7D01D70D5E72100386800F04EFEFF
:1049A000F5E7C046FFFFFF0FF0B5DE464E4657461F
:1049B00045460023E0B58DB00A936B4B8200D35877
:1049C0000B90994600239B464B46079300F084FBCF
:1049D000079C06000F006268EFF3108572B613683B
:1049E000002BFCD022000794BFF35F8F2468637B09
:1049F0009946002B66D092685C4B90464B441B0155
:104A0000984443461A685B6810001900801BB9413E
:104A100000295EDD0B9800F0E9FB00230026984694
:104A200000279A46079C6368BFF35F8F5A461A6057
:104A300085F310885346002B08D10028C6D10DB04D
:104A4000F0BCBB46B246A946A046F0BD0A9B414613
:104A500018024B461843D047089009916268EFF35B
:104A6000108572B61368002BFCD00794BFF35F8FDC
:104A70000899099A002A47DB114303D0079B1B6959
:104A8000002B5CD1079B1B68D97B002906D01A68D4
:104A90004800411852184946033A51704A46DA73A1
:104AA0004B46079A013BD168CA5C0132CA545B4647
:104AB000079A13615368BFF35F8F5A461A6085F3F4
:104AC000108883E700230026984600279A46002096
:104AD000A8E7002901D100289CD10021200000F086
:104AE0002FFD43461E685F689B68079A9A464346B7
:104AF000DB689846D3684B44013B1B780A931B0242
:104B00000343136100208DE72369002BBAD03300E3
:104B10003C005B1A94411A002300A74219D89F4217
:104B20001BD0594604910121039149460291414607
:104B30000191514607980091FFF7B4FEB7E700F0E6
:104B4000CBFA089A099B06000F0092197B41994203
:104B5000E5D901225242D317E3E79642E1D9012277
:104B60005242D317DDE7C046FCB90020FFFFFF0F1C
:104B7000F8B557464E464546DE46E0B5404D8146BF
:104B80008A466A68EFF3108872B61368002BFCD06F
:104B9000BFF35F8F2E68B47B002C38D0670033687A
:104BA0003F19033FDB195A78B273002A00D1F27320
:104BB000344AA118AA6809015218494611605146A1
:104BC0005160314991600021D1609970597019701C
:104BD000737B9B46002B36D022005946B068736821
:104BE0009847002821D05B46584631685B005B44FB
:104BF000CF19033BB870CA18CB5C002B00D07B7078
:104C00005B46147073735C451ED0002627E06B680A
:104C1000BFF35F8F1C6088F3108801204042F0BC16
:104C2000BB46B246A946A046F8BD5B465B0032686B
:104C30005B44033BD3189C70D119D25D002A00D08D
:104C40005A705B460B7074734A465346287D00F0D9
:104C5000CDFA061ED9D02100286800F0EFFCEB68E1
:104C60001B19013B19786B68BFF35F8F00221A6034
:104C700088F310880020002ED1D108022043CEE70F
:104C800090140020FFFFFF0F7548001010B5124C64
:104C90006368002B04D00A211048FFF7BBFD10BD4C
:104CA00023000F4A1021206800F062FB032000F06F
:104CB00007FA032000F00AFB03200A4900F050FA2B
:104CC000FFF712FC084B9C46032360442375074BF7
:104CD00080006060DC60DEE790140020F4BA002001
:104CE00025480010A949001040000034FCB90020FC
:104CF0000048704790140020F0B557464E46DE46F7
:104D000045461100E0B585B006009C46109F19434A
:104D100000D1EEE06146DB170193009353401C0085
:104D2000019B4B401D0000980199241A8D41634658
:104D30000E997B600F9B3A607B61BE60396100F029
:104D4000CBF902000B00A4185D4100940195A94223
:104D500000D9D8E000D1D2E00023B9469A466F4B83
:104D600003937268EFF3108B72B61368002BFCD0BC
:104D7000BFF35F8F3568AC7B002C00D188E0670003
:104D80002B683F19033FDB195A78AA73002A00D118
:104D9000EA73634AA118B268090152180098019990
:104DA00010605160039991604946D16000229A7069
:104DB0005A701A706B7B9846002B00D181E022005C
:104DC0004146A8686B689847002800D16BE04346CD
:104DD000404629685B004344CF19033BB870CA18AA
:104DE000CB5C002B00D07B70434614706B73444542
:104DF00068D0F36872681B19013B1B78BFF35F8FA3
:104E0000002111608BF310885246002A0DD1013227
:104E10004F4692461B0223435046FB6005B0F0BC50
:104E2000BB46B246A946A046F0BD4B4648461B6964
:104E30009847071E02D14F460023EDE74B461C68FA
:104E40005D6823002B4364D0002D0CDA0098019993
:104E500002000B00121BAB41994212D840D00092C5
:104E60000193BA467DE700F037F902000B00A41861
:104E70005D4100940195A94203D8F2D100998A427C
:104E8000EFD901235B42DC1700930194BA4668E72F
:104E90004F467368BFF35F8F1C608BF3108800234D
:104EA0009A46013BB8E743465B002A684344033B0C
:104EB000D3189C70D119D25D002A00D05A70434695
:104EC0000B706C73307D009A019B00F08FF9824665
:104ED000002800D18DE72100306800F0AFFB88E7A3
:104EE00000999142BBD901235B42DC1700930194E6
:104EF000CCE700230124002501229C4617E70099F6
:104F00008A4200D828E701235B42DC170093019412
:104F100022E7B84600234F46C2467DE759480010B5
:104F2000FFFFFF0FF0B504000D0006267642F717CD
:104F3000C64636196F4100B58F4213D810D000F025
:104F4000CBF832003B00121A8B41002B14DC002BF3
:104F500037D02900200000F0F3F880BCB846F0BD3F
:104F60008642ECD90026002700F0B6F832003B005C
:104F7000121A8B41002BEADD30003900FFF7F8FDF3
:104F80000028E6DB00239846BC460F4A0F4F7B6A99
:104F90009C4504D8B96A8E42DBD99C45D9D11168A9
:104FA000EFF3108072B60B68002BFCD0BFF35F8F5D
:104FB0001368BFF35F8F4146196080F3108820BFEC
:104FC000E5E7002AC5D0D7E7F4BA00200040054045
:104FD00070B5060000F080F8FA2204000D000023EE
:104FE00030000021920003F0B9FA001969418D42A6
:104FF00005D802D0FFF796FF70BD8442FAD9012090
:105000004042C117F6E7C046F0B5D6464F46464681
:10501000C0B5EFF305823F23134018001038EFF3BB
:10502000108C72B620490A68002AFCD0BFF35F8F4B
:105030000122170087401D4C1600A24667631C4CD6
:105040002578A0462C00C4402640224209D1BFF357
:105050005F8F0E608CF31088E0BCBA46B146A8465C
:10506000F0BD5246566A134A8400A25896420ED3A7
:105070004246114BBD43E3581570BFF35F8F0022CA
:105080000A608CF31088002BE6D09847E4E70B4ABF
:105090009B00904643441A681A60BFF35F8F002359
:1050A0000B608CF31088D7E7280100D00040054042
:1050B0001ABB0020F8BA0020D8B60020D03F054027
:1050C00010B5034B01001800024AFFF7D5F910BDD7
:1050D00014BB0020B0390510034B596A0A00986AC6
:1050E000596A8A42FAD170470040054070B5040001
:1050F0000D00124A536A1900966A536A8B42FAD11C
:105100003000190024184D41AB4211D80ED02B00AD
:105110000A494A6A9A42FCD307D1084A02E0516A16
:10512000994202D1916AA142F9D370BDA642EED94B
:10513000012301246442E5175B42E9E70040054092
:10514000064A536A9942FCD807D1044B02E05A6AD6
:10515000914202D19A6A8242F9D3704700400540D9
:1051600070B504000D00EFF3108672B61A4A13688A
:10517000002BFCD0BFF35F8F002D1BD02000FFF76A
:10518000D1F9164981420AD02000FFF7D3F9012155
:105190002000FFF7B5F90123A340114A1360114B1A
:1051A000A400E550BFF35F8F00220B4B1A6086F31B
:1051B000108870BD0121A1400A4BA200D5500A4BB6
:1051C00020001A788A4305491A70FFF7DDF900219B
:1051D0002000FFF795F9E5E7280100D009500010FD
:1051E00038600540D8B600201ABB0020F0B54F4605
:1051F000D6464646C0B507002F4C616A0D00A66A28
:10520000616AA942FAD18B4208D805D00120E0BCDE
:10521000BA46B146A846F0BDB242F7D9EFF3108ABC
:1052200072B6264801680029FCD0BFF35F8F0125C4
:10523000BD402349204C8846097889462943C9B294
:105240008C46414660460870391D890065630A51E5
:105250001C49B8004350216A0020294219D0616AD4
:105260000800A66A616A8142FAD18B4219D801D13D
:10527000B24216D8CC451DD00F4B1F221D625D6374
:1052800001233A409340104A0120136043464A46A6
:105290001A70BFF35F8F0022084B1A608AF31088E0
:1052A000B5E70020BFF35F8F0022044B1A608AF33A
:1052B0001088ACE70120ECE700400540280100D051
:1052C0001ABB0020F8BA002080E200E0EFF3108C57
:1052D00072B60A490B68002BFCD0BFF35F8F012325
:1052E0008340074A0748136202789A430270BFF36B
:1052F0005F8F00230B608CF310887047280100D06B
:10530000004005401ABB002070B5050014001600CF
:10531000002915D00C00002A12D080686B689847CD
:10532000296800280ED073009B196200033B1219F4
:10533000CB18033A9C7088188A5C002A15D1067035
:10534000200070BD63001B197200033B9219CB183B
:10535000033A9E7088188A5C002A02D104703400D7
:10536000EEE75A7004703400EAE75A700670E7E717
:1053700030B583600023CCB24373013304734260C1
:105380008373C4730D000068012C06D9421C0133DD
:10539000DBB2137003329C42F9D1FF2129404B004C
:1053A0005B18C01800230338437030BDF8B5050002
:1053B0000C1E07D0630001681B19033BCB185A78F9
:1053C000002A01D12000F8BD5000801803380918C8
:1053D00000204F784870210058702800FFF794FF94
:1053E000390006002800FFF7E1FF0400002EE9D095
:1053F000002826D031002200A8686B6898472968E9
:1054000000280FD063001B197200033B9219CB18C0
:10541000033A9E7088188A5C002A00D05A70047083
:105420003400CFE773009B196200033B1219CB18BD
:10543000033A9C7088188A5C002A00D05A70067063
:10544000C0E73400BEE7C046F0B557464546DE46E5
:105450004E46E0B50D006B0001685B19DF1E0400CD
:10546000C85D83B00192CA1900284CD043001B18B4
:10547000033BCB185E78B446002E16D1019E002E59
:105480003ED0E67B002E04D073009B19CB18033B63
:105490005D70E57300282FD10023537003B0F0BC7A
:1054A000BB46B246A946A046F0BD72006244033A2C
:1054B0008A18517888460021517089465970320007
:1054C00001002000FFF720FF43468246002B07D053
:1054D0005B0021684344033BCB185A78002A16D15D
:1054E000424651462000FFF70FFF2168019BCA1971
:1054F000002BC6D10028CFD043001B18033BCB188C
:1055000000219970C8E7019B002BBAD1C4E7500075
:105510008018033809184878834648464870587000
:1055200041462000FFF7F0FE594680462000FFF775
:105530003DFF414602002000FFF7E6FE8046CFE730
:10554000F0B557464546DE464E46E0B583B001917C
:10555000457B04006B0000685B19DF1EC15DC2194A
:1055600000294ED04B005B18033BC3185E78B4464D
:10557000002E18D1019E002E40D0E67B002E04D0D4
:1055800073009B19C318033B5D70E573002931D18B
:10559000002328005370617303B0F0BCBB46B246D1
:1055A000A946A046F0BD72006244033A82185078C2
:1055B0008046002050708146587032002000FFF76E
:1055C000A3FE43468246002B07D05B00216843447C
:1055D000033BCB185A78002A17D142465146200087
:1055E000FFF792FE019B01002068C219002BC4D175
:1055F0000029CDD04B005B18033BC31800209870E6
:10560000C6E7019B002BB8D1C2E7500080180338D1
:10561000091848788346484648705870414620002B
:10562000FFF772FE594680462000FFF7BFFE414655
:1056300002002000FFF768FE8046CEE770B5040048
:1056400000292CD0437B8B422ED00568480040189F
:10565000033828188278002A21D053009B18033B76
:10566000EA5CEE188A4202D11BE0002A08D05300FF
:105670009B18033BEB185A788A42F6D142785A704D
:1056800000230122837043702000FFF7DDFE617B61
:1056900002002000FFF738FE6073012000E00020C8
:1056A00070BD43783370EBE701221900FFF7CCFEA1
:1056B00060730120F4E7C04610B50400FEF714FF44
:1056C00001002000FFF7A6F8FF232371BFF35F8FCF
:1056D00010BDC04610B50400FEF706FF0100200013
:1056E000FFF798F8FF23A380BFF35F8F10BDC0467C
:1056F0002C4B2D4A70B51A602C4A2D4B2D491A603F
:1057000014008B689C43FBD12B4D2C4EB54208D224
:10571000013E761BB60808CD984723000134B342FA
:10572000F9D100F03DF9264A214B1A60214A9368CD
:10573000DB43DB01DD09002BF9D14022214B224C58
:10574000224E9A675A671A67DA66B44208D223680B
:105750002000002B20D00834FFF7BCFFB442F6D362
:105760001B4C1C4EC022B168200003F01BFBB46030
:10577000FEF7ACFEFFF73CF8FFF788FA164C174E21
:10578000B44208D2013E361BB60808CC98472B001D
:1057900001359E42F9D170BD0834FFF78DFFB44248
:1057A000D5D3DDE700E00040BFCDFBFEFE7F3C002F
:1057B00000F0004000C00040642400207424002059
:1057C000FFFFFF0100F001405C2400206424002062
:1057D0000000002000ED00E074240020A024002040
:1057E00000BEFDE7094A03001068002805D00849FB
:1057F000C3188B4207D81360704706480449C31882
:1058000010608B42F7D901204042F5E7B8B800207C
:10581000000004201CBB002000BEFDE730B50D00D9
:105820000400190083B0002A09D0064B01920093AE
:1058300022002B00044801F06FFD00BEFDE7034B82
:105840001A00F3E7D4390510E43905105C69051036
:105850000FB400B5084883B003F0EEFB049B002BA7
:1058600007D005A91800019101F076FD034803F067
:10587000E3FB00BEFDE7C046143A05109C75051019
:1058800010B50148FFF7E4FF243A0510F0B545468E
:10589000DE4657464E46E0B583B001920C9A0500AD
:1058A00088469A4200D974E01A0E93461E023000D0
:1058B000002359460C9A01F011FE374B6C009C46B0
:1058C0006419A400644463680700834200D26060E6
:1058D0002B1FDBB29946012B35D9C02380229B01B7
:1058E000234312011A602D4BAD0059599A460029E5
:1058F00005D0586901F0B0FD01300138FDD1019BA0
:1059000022685B015340E0221A4080235B0123435D
:105910001A604A46012A2FD9802380229B01234303
:1059200012011A60300000233A005946676001F006
:10593000D5FD53465851012003B0F0BCBB46B246DA
:10594000A946A046F0BD4346012BC6D1C023032281
:105950009B0123431A60023AA3681A42FCD0019BC0
:1059600022685B015340E0221A4080235B012343FD
:105970001A600A4AAD00924642462168514003220D
:105980000A401A60012243469A40A3681A42FCD09A
:10599000C2E70020D0E7C046008000400CB70020DE
:1059A00010B50C2082B000F0BBF9FEF787FD00288F
:1059B0000ED0854B854A1A605A609A60DA601A6187
:1059C0005A619A61DA611A62814A5A6202B010BD64
:1059D000804CA06700F0ACF901227F4B1A60636C29
:1059E000012BFCD103227D4B1A607A4A936B012B69
:1059F000FCD1013301217A4A7A480093043300F044
:105A00002DF90523784A00930121784800F026F902
:105A1000774B5A68FF2A02D8802252005A608022AF
:105A20006E4B694C12011A602169002905D060692A
:105A300001F012FD01300138FDD1E0226C4B6D48C0
:105A400019680A40026002221968514001320A4076
:105A5000042102609A681142FCD08021664A090143
:105A60001160802252005A60644B2361644B596874
:105A7000FF2900D85A6003220121574B1A60604A5F
:105A800093681942FCD0E023106803405D4803602E
:105A9000126803234A4002211340594A0360936865
:105AA0001942FCD08021584B090119608021574BC5
:105AB000490051606361564B5A68FF2A00D859600B
:105AC0008022544B12011A60E169002905D06069F7
:105AD00001F0C2FC01300138FDD1E0234C4A1168CD
