:020000041000EA
:1000000000B5324B212058609868022188439860DF
:10001000D860186158612E4B002199600221596106
:100020000121F02299502B49196001219960352056
:1000300000F044F80222904214D00621196600F024
:1000400034F8196E01211966002018661A6600F04E
:100050002CF8196E196E196E052000F02FF8012189
:100060000842F9D1002199601B49196000215960AB
:100070001A491B48016001219960EB211966A021F2
:10008000196600F012F800219960164914480160C1
:100090000121996001BC002800D000471248134993
:1000A000086003C880F30888084703B5996A0420EC
:1000B0000142FBD001200142F8D103BD02B5186610
:1000C0001866FFF7F2FF186E186E02BD00000240BE
:1000D000000000180000070000035F00212200005C
:1000E000F4000018222000A00001001008ED00E03C
:1000F00000000000000000000000000074B24E7A12
:1001000000200420F7010010C3010010C5010010F9
:10011000C1010010C1010010C1010010C101001097
:10012000C1010010C1010010C1010010C701001081
:10013000C1010010C1010010C9010010CB01001065
:10014000CD010010CD010010CD010010CD01001037
:10015000CD010010CD010010CD010010CD01001027
:10016000CD010010CD010010CD010010CD01001017
:10017000CD010010CD010010CD010010CD01001007
:10018000CD010010CD010010CD010010CD010010F7
:10019000CD010010CD010010CD010010CD010010E7
:1001A000CD010010CD010010CD010010CD010010D7
:1001B000CD010010CD010010CD010010CD010010C7
:1001C00000BE00BE00BE00BE00BE00BE00F04BF888
:1001D000103800BEF2EB88719CC90110B8C901103B
:1001E0003402001090A31AE700202149086006C8D5
:1001F00081F3088810471F48006800282FD10DA4FC
:100200000ECC002902D000F012F8F9E71A491B4A77
:10021000002000E001C19142FCD1194988471949E9
:1002200088471949884700BEFDE701C901C29A42C3
:10023000FBD37047B8C90110C00000208017002010
:1002400078E00110000004200000042078E0011094
:1002500000100420001004200000000070470B482C
:1002600005F07CFC0047EFF30580C0B2704700004A
:1002700008ED00E0000000D080170020B4920020BC
:10028000393F0010D90C0010614000105756000093
:1002900006005250ABB3605378A7011006005250CD
:1002A000861C030288A70110060052505422A29D0A
:1002B00094A7011005005250DE65F46878E0011043
:1002C000F8B5C04606480749091A8B10C90FC91866
:1002D00010B5491003D0044B002B00D0984710BD37
:1002E000801700208017002000000000054B10B58B
:1002F000002B03D00449054800E000BFFFF7E2FFF0
:1003000010BDC046000000005892002008200110D7
:10031000F0B5D64646464F46C0B506008CB05448A8
:1003200001F03AF8082303220221012001F006F827
:10033000504B0B2198461B6800201A680F2301F0D0
:1003400099F90F2300220021002000F0F7FF00237D
:100350006A4671681372684602AC073101930094D3
:1003600007F070FE019A444B9B1A062B00D87CE0E4
:10037000424F07223900684607F058FF726831681B
:10038000684607F053FF01236846102203215B42B1
:1003900001F050FD0098A04203D00299013107F00E
:1003A0006FF80F220F230F210F2000F0C7FF00234B
:1003B000716806AC200008AD0731069563602372B2
:1003C00007F040FE62682C4B9B1A062B4DD9072282
:1003D0003900200007F02AFF06CE200007F026FF94
:1003E000012320000F2202215B4201F023FD069829
:1003F000A84203D0A168013107F042F8204B1B68E6
:10040000002B28DD5E07F61AB600F61A07239A4677
:10041000002399461B4F760025603B6820002B6027
:10042000BB880F22AB80BB79AB71534663604B46F0
:10043000E37343461B681968012371185B4201F09E
:10044000F9FC2068A8420CD0A1680A36013107F0F7
:1004500017F8002EE0D10CB0E0BCBA46B146A84671
:10046000F0BD0A36002ED7D1F5E7074807F050FC5B
:100470007D0E0010908B0020FFFFFF3F2020011019
:1004800054920020282001100820011070B50F237D
:1004900088B0FF2219210A2000F050FF01F03EF938
:1004A000042300220021002000F048FF0F230F2228
:1004B0000F210F2000F042FF574B00211B68002046
:1004C0001A680B2301F0D6F804AC002100200F239A
:1004D000002200F033FF2200504B029423CB23C2B2
:1004E0001B7802A813700D236A4603930023022190
:1004F00053770222013B01F09DFC0298A04203D0F9
:100500000499013106F0BCFF454B02941E685D68FA
:10051000002E00D173E001950F2D4DD8012D00D094
:1005200074E06A463378137422000023039502A80E
:100530005355FFF7EDFE0298A04203D00499013114
:1005400006F09EFF5A2374221B21022001F064F85A
:100550005A2374221D21022001F05EF8314BA8209D
:10056000D9689B684A00013352185900C9185200D3
:1005700049001532033101F0C9F92B4B30CBA542AC
:1005800010D0636801205A00D2182368520001334A
:100590005900C918490015320331103401F0B6F979
:1005A000A542EED101F0B8FD204B1C78002C17D0ED
:1005B000012C10D008B070BD002201A902A807F0DC
:1005C000C9FC019B029004932A00310006F046FF0B
:1005D000019D029AA9E7FA2105F01AFB0442E9D12C
:1005E000134B4920D9689B684A00013352185900BF
:1005F000C91852001232490001F088F9DAE72200E6
:10060000002D00D191E70B4807F052FB2200002D8E
:1006100000D18AE72000D7E7908B0020302001101E
:10062000981A00209891002040920020B292002059
:100630007092002040200110F0B5454657464E46C6
:10064000DE46E0B5436806689246394A984683B06C
:100650009B1B050000911B11934265D00122002BCA
:1006600002D05A00934248D8009B9B1B9946002A0F
:1006700052D110239B460023002701934B4652463C
:10068000FB1813CA13C312681A60009CA64216D046
:100690003A003300BB46B446AA4611001800E0C831
:1006A000E0C10068103308601032A342F5D14B4618
:1006B00010335F469B46664655460094BB440099FE
:1006C000884507D043465B1A984658461A0006F0FC
:1006D000C5FEC344002E04D0A9683000891B06F073
:1006E000CFFE5B466B60019B2F60AB6003B0F0BC3C
:1006F000BB46B246A946A046F0BD8B1B99460D4BA2
:100700009B46584606F0B0FE83445B460193102397
:100710009B4607008344B1E780231B059A4200D320
:10072000034A13019B46ECE7034807F0F1FAC04681
:10073000FFFFFF07F0FFFF7F6C200110002209215F
:1007400070B50F24234B84B01A70234B1860234BD1
:1007500099600839DC6006C30FF03CFFC3171B0F1C
:10076000C0180440E41A0FF035FF122105F028FAF2
:100770001B4DA960022C21DC0234EC600FF02AFF33
:10078000012300266B602E600FF024FF122105F07C
:1007900017FA6C46022313486360013B0091E36043
:1007A00041688368A660994210D00B0064CC64C392
:1007B000226810311A60416004B070BDEC600FF027
:1007C00009FF0123072CDCDD5B42DAE72200FFF79B
:1007D00033FFF1E7B2920020549200207092002083
:1007E0009891002040920020032270B50026114B02
:1007F00090B01A60104B03201E61FFF79FFF022389
:100800000293083306AC0D4D0193283320003221AA
:100810003222009305960496039600F0C1FB200057
:100820002B0032C832C316C816C316C816C310B080
:1008300070BDC0465492002070920020A891002004
:10084000F0B55746DE464E464546E0B5D34BAFB011
:100850000B931B788246002B5BD13C2105F0D8F925
:100860000C1E00D12BE11E21504605F0D1F90029C4
:1008700000D182E00A21504605F0CAF90C1E4ED183
:10088000162001F03DFCC64D002800D0F2E11520F5
:1008900001F036FC002800D0E2E1AE682B686A68FF
:1008A0009046F618EB68BF4C9844012303930293DB
:1008B000E36801220193A3684146009330000123BD
:1008C00001F04AFB002800D099E125686768112EE5
:1008D00000D91DE14346023B0D2B00D918E1A36866
:1008E000E268EB18013B0D2B00D96DE1D219033AF8
:1008F000092A14D90FF06EFE032105F061F90229CF
:1009000000D1CFE10027012901D00121494282C451
:1009100005E0012B0AD0A44B1868FFF70FFF2FB09A
:10092000F0BCBB46B246A946A046F0BD122001F07D
:10093000D5FB0028F3D0032200269B4B03201A602E
:10094000974B0CAC1E61FFF7F9FE022302930833AC
:10095000964D0193283320003221322200930596D0
:100960000496039600F01CFB20002B0032C832C313
:1009700016C816C316C816C3D1E78D4E73683468FF
:1009800009939C4200D175E78A4B0A938A4B98469B
:100990002168A368E268C918636821609B186360D6
:1009A00016A801F061FA854B179A9A4200D17CE1B2
:1009B00001220A9916A807F039FC06001EAB1C9309
:1009C0009946036808360500B34200D1D7E01C936E
:1009D00083681E936B6822A81D9300232B726B60A3
:1009E0002E60616801F040FA1D9D239A1C9BA81897
:1009F0004B4500D1C1E01E99884200D896E022996B
:100A000024AE0896B14200D1C5E0249EB04200D881
:100A1000A1E01CA807F00AFC082293462AAF2897F9
:100A200003688344060028AD5B4500D1ADE0289300
:100A30008368AB6073686B605B463360002333721E
:100A40007360434618682B68BB4273D05C4A90427F
:100A500000D187E04146464642460B602A9B2999D1
:100A600092687160B360002800D182E02860AA60BB
:100A700000236B6003702868B84203D0A968013175
:100A800006F0FEFC2298089B984203D0249901317D
:100A900006F0F6FC1C98484503D01E99013106F07B
:100AA000EFFC169818AB98423AD0189910340131DF
:100AB00006F0E6FC099BA34200D069E7DAE60FF0F6
:100AC00089FD122105F07CF8022328AD384E2891CB
:100AD0006B60013BEB607168B368AC60994200D118
:100AE000D9E00B0015CD15C32A6810311A6071606A
:100AF000344806F0F9FD1E21504605F089F800291A
:100B000000D0B7E60B9B1B78012B00D1B2E635E78E
:100B1000254A1368002B66D10B9A01331370DEE669
:100B2000099B1034A34200D032E7A3E624AB2299FC
:100B300008936EE76A68002A07D0012A59D0390065
:100B400006F08CFC43466A68186843465A600023E6
:100B5000835428688CE700220021009522A807F022
:100B6000A1FA59E74246414613602A9B299A8B60B5
:100B70004A602F602AAF38007AE70F213CE7102245
:100B80003100484606F06AFC24E75946380008322E
:100B900006F064FC4EE70F2638E7C046B29200200C
:100BA000709200209891002054920020A89100207B
:100BB0004092002068B70110981A0020FFFFFF3F05
:100BC000A01A0020F8BA01100FF004FD032104F070
:100BD000F7FF02295CD0012962D00121002549429A
:100BE000256061609BE6013B136002230B9A137042
:100BF00075E62B7A037043466A681868A5E72B6987
:100C00006A4601332B6164230793463B0693E12335
:100C1000274DDB0005932B00103383CB83C203CB1E
:100C200003C20FCD00F0CEF90FF0D4FC0F25C3178F
:100C30001B0FC0180540ED1A0FF0CCFC122104F078
:100C4000BFFFA160022D1DDDE56001270FF0C2FC92
:100C5000072D00DD7F42002300252360676036E614
:100C600001232B600023AE686B6001360022AE606A
:100C7000013315E601235B422B60AB686C60013BDE
:100C8000AB6004E60235E56001270FF0A3FCE2E764
:100C900000216D42A4E72A003000FFF7CDFC27E7D2
:100CA00000259DE700217F4231E6024807F030F839
:100CB000A891002008200110054A13000833136092
:100CC000002353601372034A1360536093607047AC
:100CD000981A002040920020F0B5DE464E46454668
:100CE0005746E0B583B001F095FB802601F07AFB12
:100CF000002301244B4D760008C5200006F02CF897
:100D0000EE21890505F0F1FF474905F0EEFF06F0F9
:100D100093F8013401C5B442EFD1002001F0DAFAB2
:100D200001F024FA01F01CFA0028FBD101F008FAC6
:100D300001F006FA4B2001F0CDFAFFF755FD01F066
:100D40004DFB3A4B00279B46186000239A46384BD0
:100D5000384D994601F0F0F9060000F0E3FA00F092
:100D6000F5FA00F0F9FA00F00FFB00F01BFB00F0C1
:100D700035FB00F06BFB5B464A461B68136001F0D5
:100D80002DFB5B46186001F0D7F97B1C040038008E
:100D90009846FFF755FD01F0CFF9001BE86001F020
:100DA000CBF9009001F0DCF90028FBD101F0C4F987
:100DB0005346C01A686101F0BFF9040001F0BCF9A4
:100DC00082464046FFF762FB01F0B6F95346C01A6F
:100DD000286101F0B1F9019001F0B2F901F0ACF92C
:100DE000804601F0A9F9824601F0C0F901F0A4F9AA
:100DF000861B31001048AE6004F00AFF013000236A
:100E00000237286028280AD9009B4444E01A019B35
:100E10003100C01A6423584304F0FAFE03006B60EB
:100E200098E7C046BC8B0020DB0FC940588B0020E0
:100E30006C8B0020788B00203F420F0010B578218A
:100E4000084A782001F058F8074B80211860074BBA
:100E5000074A1860802001F04FF8064B1860064BD7
:100E6000186010BDD81A0020908B0020D41A0020E2
:100E700000250110C01A0020608B0020F0B54E46FE
:100E800045465746DE4690460A1452008446105A9C
:100E90003E4AE0B50503154005433D4883B0054093
:100EA0003C482F0304783F0F7C430F34241127075D
:100EB000FF0F0C9EE4198146E4B2771E002E1FD06E
:100EC0004046002823D1324965438C4610210C1B33
:100ED000314965448C46314989461E882C48310386
:100EE0001140314301406046614349190E0C0640F0
:100EF000484609090140314319800233013FECD2D1
:100F000003B0F0BCBB46B246A946A046F0BD0120E6
:100F10008246604601901E884144300310403043B1
:100F20001B4E304083461020001B844658466646C0
:100F30007043844616486C4383465C4464441748B7
:100F4000250905401448240C04402C431C800198BA
:100F50000C146400245A58462503154025430540C7
:100F6000FF202C0C204084464846047860465646B4
:100F700044430F342411E4B2E00830408446644412
:100F8000E4B20233013FC6D2BAE7C04600000F0FF9
:100F90000F0F0F0F40110020F0F000000F0F0000A6
:100FA00010B50361029B039C4361059B0460836150
:100FB000069B049CC361079B44608160C26003621E
:100FC00010BDC04684B030B5059206930E4A0C9B06
:100FD000049113600D4A0E4913600D9A0D4B039056
:100FE0001A600E9A0C4B1A600B0003AA31CA31C367
:100FF00013CA13C313CA13C30022084B1A6030BCB0
:1010000008BC04B01847C046BC1A0020C81A00200B
:10101000948B0020B88B0020601100205C8B002096
:10102000F0B557464E46DE464546E0B54E4E040006
:10103000736900209B464D4B83B01F68B369BA4665
:10104000DA449846D146C144A1451CD9316A0029E9
:1010500020D1474BB5681B6800933B00AF4200D9D5
:101060002B009C421BD22900200204F0D1FD009BE2
:1010700043431D0AF369002B36D14346002B01D0B0
:10108000444545D8E8B203B0F0BCBB46B246A946D9
:10109000A046F0BD200004F0BBFD641AD9E7F36858
:1010A00001935B19BB422FD89C4205D3A74244D978
:1010B000306964210002D8E730696421802700028A
:1010C00004F0A6FD7F003B1A9A46601B01990002BE
:1010D00004F09EFD53465843009B000A3F1A7B4391
:1010E0001D0AF369002BC8D00FF074FAF7693900B4
:1010F00004F08EFD7F08B369C91B98466D181AD499
:10110000642DBADD6425B8E73B009C42CED2D3E71C
:10111000E01AFFF785FF060028004946604304F007
:1011200077FD4B460500181B4946704304F070FDDF
:101130004019C0B2A7E700259FE70025A24599D92D
:10114000E01B5946000204F063FD0135FF352D1AFE
:1011500030696421000204F05BFD6843009A030AD1
:101160005A43150A86E7C046948B0020B88B0020AE
:1011700060110020F0B54E4657464546DE46E0B5C4
:10118000624C634F634B266899463D6885B0002EDC
:1011900002D0616800293ED16B1C3B606369A7697E
:1011A0009B465D4B00211E6833005B449A46BA445F
:1011B0000193AA451FD9216A002927D1574B1B68E3
:1011C0000293A36898463300464500D94346AB4294
:1011D0002BD94146280204F01BFD029B43431B0A06
:1011E0009846E369002B47D1002F01D0BD4257D864
:1011F000FF21434619404B46186801F08FF805B0AF
:10120000F0BCBB46B246A946A046F0BD280004F09B
:10121000FFFC6D1AD2E7280004F0FAFC404B46436D
:101220001B68F6184B461E60B6E7E3680393434419
:10123000B34231D89D4205D3AE4249D920696421D9
:101240000002C8E7206964218026000204F0E0FC67
:101250007600331A9B464346E81A0399000204F0CD
:10126000D7FC5B465843029B000A361A73431B0A9D
:101270009846E369002BB7D00FF0ACF9E66931006E
:1012800004F0C6FC43467608891BC9181CD464299F
:1012900038DC8846A769A7E733009D42CCD2D1E766
:1012A000E81BFFF7BDFE040040465146684304F0CA
:1012B000AFFC53460600581B5146604304F0A8FC9F
:1012C000FF218019014096E70023A76998468BE724
:1012D00000239846019BAB4200D882E7A81B5946E1
:1012E0008026000204F094FC7600361A20696421FE
:1012F000000204F08DFC7043029A030A5A43130A59
:1013000098466EE76423A76998466DE7948B0020A2
:101310005C8B0020BC1A0020B88B002060110020DC
:10132000C81A00200F2310B50F220F210F2000F044
:10133000D3FD014B188010BDAC92002010B500F019
:10134000CBFD014B188010BDAC9200200F22014B49
:101350001A707047401100200022064B1A60064B9D
:101360001A60064B1A68064B116852681960054BE3
:101370001A607047CC1A0020D01A0020D41A00201E
:101380004C11002048110020014B024A1A6070479E
:10139000441100207D0E0010014B18607047C046BC
:1013A000441100200021074B1A68074B1A60074BB5
:1013B0001960074B19601168064B52681960064B9B
:1013C0001A607047908B0020D41A0020CC1A00209D
:1013D000D01A00204C110020481100200022024B9E
:1013E0001A60024B1A607047708B0020748B0020CB
:1013F000054A036812689B1A044A03600B68126866
:101400009B1A0B607047C046708B0020748B0020C5
:10141000002808D0094B0A4A19680A4B18680A4B79
:10142000106019607047084B044A19681160044A3B
:1014300004491068086000200021F1E7E08F0020D7
:10144000748B0020E48F0020708B00200022024B60
:101450001A60024B1A607047648B0020688B002072
:1014600010B584B00390029103A802A9FFF7C0FF52
:10147000114C124B2468124A1B6812680194114CDB
:10148000029924680398009400F0B8FD002811D058
:101490000D4B02991B680D481A689B684A430399D3
:1014A0005218012152009B18094A0091146800212A
:1014B0000022A04704B010BD48110020D01A00201F
:1014C000CC1A00204C110020D41A0020AC9200202D
:1014D0004411002030B585B00390029103A802A901
:1014E0001400FFF785FF174B02991A68914226DB1B
:1014F000154B1B68D218914221DA144A039B1268DB
:10150000934203DAD31AE41A13000392104DE01841
:101510002D685219904201DB801A241A002C0EDD2E
:101520000C4A106802684A43D218836852009B181C
:10153000094A00941468002100220848A04705B019
:1015400030BDC046D01A002048110020CC1A00201F
:101550004C110020D41A002044110020AC9200202D
:10156000F0B5D6464F464646C0B584B003900291CA
:1015700003A802A91700FFF73BFF204B039A1B6843
:101580009A4234DB1E4909685B189A422FDA1D4BD8
:1015900002991B68994203DA591A7F1A19000293BB
:1015A000194C781824681B19984201DBC01A3F1A9D
:1015B000164E7D1E3068036884684B439B185B00A1
:1015C000E418002F13DD124B01279946114B984662
:1015D000434600971B6800229A4600212300484694
:1015E000D04733681A685200A418013DF0D204B005
:1015F000E0BCBA46B146A846F0BDC046CC1A0020B1
:101600004C110020D01A002048110020D41A0020CC
:10161000AC9200204411002070B514001D0082B06F
:101620000190009101A86946FFF7E2FE0020FFF754
:10163000EFFE220000990198FFF74CFF00996E1E03
:10164000320001980131FFF78BFF0099019869186A
:10165000621E01390130FFF73DFF0198320020186A
:1016600000990138FFF77CFF0120FFF7D1FE02B09F
:1016700070BDC046F0B5C64600B588B0079006916B
:1016800007A806A905920493FFF7B2FE1C4B05AA12
:101690001B6806A903931B4B07A81B6802931A4BF0
:1016A0001B680193194B1B68009304AB00F070FC9E
:1016B000174D06992A68136894684B4307995B187D
:1016C0005B00E418049B5A1E0492002B13D0114FA8
:1016D000114E059B00220093336800219846380084
:1016E0002300C0472B681A68049B5200A4185A1E96
:1016F0000492002BEDD108B080BCB846F0BDC046C6
:10170000481100204C110020D01A0020CC1A0020D3
:10171000D41A0020AC9200204411002010B5054BD3
:10172000054A064906481B68126809680068FFF701
:10173000A1FF10BD481100204C110020D01A00203C
:10174000CC1A0020F0B5DE4657464E46454699462F
:10175000E0B589B083460E0013A814A9129C049228
:10176000FFF746FE624D634F2B684A4603933B6882
:1017700014990293604B139898461B6801935F4B32
:101780009A461B680093230000F0E6FB002800D176
:101790008BE0002E00DA8FE0B446CC44634605931C
:1017A000049B1399002B00DA91E0E3180693149B35
:1017B0005846026805980792824205DC801A8446E2
:1017C00048466246801A81465846406884460698D4
:1017D000844502DC6246821AA41A52461268944674
:1017E0008A4204DD511A7618894411001392424648
:1017F00012689A4208DD0498D31A804698444046FD
:10180000E41813000490149288463F68C844674463
:10181000B84504DB4046C71B4846C01B81462D68BF
:10182000E7185219974201DBBF1AE41B4A46002A07
:101830003BDD002C39DD0798049A42435846921943
:1018400087685200BF182E4A1068026885685343A3
:101850005B185B00ED18159BDB0742D480235B020D
:1018600019000026159B013C9B0704D52300534318
:101870005B00ED18524253000493224BB0469A4647
:101880004B4689460593059B3800009353464A46CC
:101890001E6841462B00B047049B9C465B461B6874
:1018A00065445B00FF18013CEDD209B0F0BCBB46BB
:1018B000B246A946A046F0BDB1444B4613990593E4
:1018C000049B891B13910026002B00DB6DE71A0097
:1018D000149B94469B1A0022644414930694049229
:1018E00066E74B469E1B084B013E19003604B9E7DC
:1018F000481100204C110020D01A0020CC1A0020E2
:10190000D41A0020441100200000FFFF70B50C0025
:1019100007210C4B15001E6884B03368DA1711409C
:10192000C918C91004F074F9002303930833C200E6
:10193000C9003000029501940093FFF703FF04B043
:1019400070BDC046608B0020F0B54E46DE4657465F
:101950004546E0B502782F49203AD3009B180A6823
:1019600085B0D65C0190D0182B4B039102931B6875
:101970005A1C4CD09B1BDB051B0E9846274B42463E
:101980009B46274B196899465B461B685218C01A3C
:1019900001301F00824650461500C45D002E0AD05B
:1019A00063B2002B24DB640001359319E4B2AB422F
:1019B000F6DC5B461B680137D81DB842EBDA019BA9
:1019C0001A78029B1B68581C05D1039B203A1868A3
:1019D000D3009B181B5C134A12688918C9184B4620
:1019E000196005B0F0BCBB46B246A946A046F0BDA2
:1019F00039002800FFF734FD4B46196843465A1852
:101A0000640001359319E4B29D42C9DBD1E700239C
:101A10009846B3E75C11002058110020688B002025
:101A2000648B00205411002030B50B6802681C0044
:101A300001330B60D05C702809D110198578652DB1
:101A400005D1C0786E2802D1073423000C60D05C29
:101A500073280AD1D2185078702806D19278722A49
:101A600003D105330B60683830BD0020FCE7C04669
:101A7000F0B5CE46474680B50D6803686A1C0A601B
:101A80000C00995C060089B070295BD159198878DF
:101A9000652857D1C8786E2854D16F1D27600A7900
:101AA00010003038C0B209280AD91100413905297F
:101AB00000D8A2E0110061390020052900D8AFE06C
:101AC000AA1D22609446DA5D11003039C9B2092995
:101AD0000AD911004139052900D8A4E01700613F57
:101AE0000021052F00D892E0EA1D22609046624650
:101AF0009F5C3A00303AD2B2092A0DD93A00413AF5
:101B0000052A00D892E061256D42AC46BC4465468A
:101B10000022052D00D87DE045465D5D2B00303B61
:101B2000DBB2092B0AD92B00413B052B00D888E0FA
:101B30002F00613F0023052F00D86EE0FFF7FEFB6A
:101B400022683368995C732952D1991848787028B3
:101B50004ED1897872294BD1033222607568AA422E
:101B600000D98DE004AFAD1A2E0002979918032D0D
:101B700046D8002900D175E0012D69D002AB984606
:101B8000002D3FD1434600255E60BE193570029E90
:101B90000FF094FB036899460FF090FB0A22056052
:101BA00001A930000EF0A6FF019B05009E4261D006
:101BB0000FF084FB0368222B5FD00FF07FFB0368DC
:101BC000002B4AD00298B84204D0434699680131AC
:101BD00005F056FCFF2023682840023323602B4C7D
:101BE0002B4B21681A68FFF791FE236808332360A6
:101BF00009B0C0BCB946B046F0BD373AD0B25FE7D5
:101C00000326B6E73200380005F028FCBAE7573A59
:101C1000D1B269E7573FFAB27EE7573DEBB28DE7A5
:101C2000573AD0B24CE7373AD1B25DE745465D5DF1
:101C3000373F2B00303BDBB2FAB2092B00D972E7F9
:101C40007CE7373DEBB2FFF779FB2268336879E731
:101C50000B7802AA9046137294E70FF02FFB4B46C5
:101C60000360AFE702AB9846002D00D18AE7094830
:101C700006F01EF8084806F033F8074806F060F84A
:101C80002B000649064806F073F8C046648B002016
:101C9000688B002040200110D820011088200110FE
:101CA000A0200110F0B557464E46DE4645465B4B38
:101CB000E0B59A461B680A009C468FB00293002349
:101CC000624409924268814604910C93002A00D133
:101CD0009FE0534900238B465249002503910AA9EE
:101CE000CF1D51490191514905915149069110E08B
:101CF0000A2C22D15346029919605B4603991B684E
:101D000009685B1859460B60002301350C95954214
:101D100018D2494609684C5D3C70202C37D022D837
:101D2000092CE5D1404B1B6819788B005B185B00D0
:101D3000514609685B1851460B60013500230C952C
:101D40009542E6D35B46039A1B6812689B185A4675
:101D500013605346029A1A600FB0F0BCBB46B246FD
:101D6000A946A046F0BD5C2C0BD148460CA9FFF754
:101D70007FFE0C9D5C3C631E9C414A46E3B2526868
:101D8000C3E7002B07D03800FFF7DEFDF2E7019B29
:101D90001B681B78CCE7230007940C0006992A00E7
:101DA0000D95089500268846059D11E02968481C78
:101DB00005D10199203B0868D900CB18195C43462E
:101DC0001B680132F618A35C8E190D92202B0AD9DC
:101DD0005C2BEBD148460DA9FFF726FE0D9A36186D
:101DE000A35C202BF4D8049B079C089D0133CAD028
:101DF00053461B68F618099B9E42C4DD5346029A5F
:101E00001A605B46039A1B6812689B185A46136057
:101E1000B9E7034B9B46034B039393E7648B002086
:101E2000688B0020501100205C1100205811002008
:101E30005411002030B51D00040083B0019101A8A9
:101E400069460092FFF7D4FA019A054B29001A60FF
:101E5000044B009A20001A60FFF724FF03B030BD46
:101E6000648B0020688B0020F0B504002600184F1A
:101E70000B0083B02021174A3800083603F034FEE7
:101E8000380026600FF0A4FA0500030001900F2827
:101E90000CD8012807D13A78227200222000636012
:101EA000F25403B0F0BD0028F7D008E00022200073
:101EB00001A906F04FF80600019B2060A3603000E6
:101EC0002A00390005F0CAFA019B2668E5E7C046FA
:101ED000E88F0020E020011010B5F0242401120248
:101EE00022400F24044014431A01FF2309030C432A
:101EF00013401C43A0B210BDF8B5060010200F001F
:101F0000150005F0B1FA04001022002105F0A0FA36
:101F100026606760002D02D0A5602000F8BD7743E1
:101F20000C4B78009F4211D805F0A2FA0500012F52
:101F300008D4BB1E0222013300DB7A0000212800F6
:101F400005F086FA0123A5602373E6E701204042ED
:101F5000EAE7C046FCFFFF3F30B504000598039D4B
:101F6000844665440020A54211DBA418039A9442DC
:101F70000DDB069C049AA44662448A4207DBC9181A
:101F8000049B049AC817DB0F91425841C0B230BD80
:101F9000F0B5C646146800B5A046089C069EA44647
:101FA00044460768B4443C19079D644500DD644617
:101FB000B74200DA3700E41BE743FF173C401460E8
:101FC0000C681A68099FA2187F19BA4200DD3A000E
:101FD000AC4200DA2C00121BD443E41722401A60F2
:101FE0000368B34200DA330003600B68AB4200DAE7
:101FF0002B000B6080BCB846F0BDC04630B5040075
:10200000002094420EDB99420CDB039DAC466244F7
:10201000A24207DD049A0120944663448B4200DC0F
:102020000020C0B230BDC04610B5FFF7A3F80120B4
:1020300010BDC046A022234BD205D258012322490D
:1020400010B50868834013420ED0204A1360204A1E
:10205000138801331BB21380782B06DD01235B420A
:10206000138000221B4B1A7010BD1B4B1B68986815
:1020700013881BB2002B06DD13881BB2013B1C0129
:10208000E31A1B01C01814883C23002C08D10A68ED
:10209000A021C9058C46920162441060D361E3E738
:1020A00013881BB2783B5A4253413B225B42934315
:1020B0000A68A021C9058C469201624478331060F9
:1020C000D361D1E70C040000C41A00200C24005096
:1020D00068110020AE920020908B002001238340E5
:1020E000054A002012681A4205D1044A10681840B7
:1020F000431E9841C0B27047588B00206C8B002063
:1021000001238340034A1068184043425841C0B23B
:102110007047C046588B002010B501F001FC002923
:1021200005D0FA220023920003F0B4FD10BDFA217D
:10213000890003F06DFDF9E710B501F0F1FB10BD6A
:10214000D021012209064B681B0A1A42FBD1D0217B
:10215000012209064B681B0A1A42FBD07047C04691
:10216000014B18787047C046AE920020174A13788A
:10217000002B00D0704701211170154A1380154BB8
:102180001B68996813881BB2002B06DD13881BB2ED
:10219000013B1801C31A1B01C91810883C230028F1
:1021A00009D1A020C00584460B4A126892016244FE
:1021B0001160D361DEE713881BB2783B5A4253416A
:1021C0003B225B4293437833EBE7C046AE9200205C
:1021D00068110020908B0020C41A0020F0B5CE4674
:1021E000474680B5334B87B004000D00186832496C
:1021F000984605F039FB80235B020293C0231B0342
:102200000493030080271233C2011B0313432B4A9C
:10221000FF0513403B430393012306009946290021
:102220002000009307220133059705F009FC244B99
:10223000244A0293049B290013400493059A224BDD
:1022400020001A40214B134305930022C02305F0C0
:1022500071FBC02229002000C02305F0ADFB049BC8
:1022600007209B009B081F4343461968184B04979F
:102270009C4661444B1E9941063100F0AFFC434639
:102280001968134B06209C4661444B1E9941063148
:1022900000F0A4FC320002AB2900200005F012FC83
:1022A0004B46AB4022681343236007B0C0BCB9461D
:1022B000B046F0BD6411002070210110FFFFFF9FA8
:1022C00000010200FFFFF5C1E0830FFC07181000BA
:1022D0000000E0AF10B504F03FFD0B4904F0F1FC45
:1022E0000A4904F0D1FE0A4B0A491C6804F0FDFCBF
:1022F000FC21890504F0E2FC04F088FD6040064BF7
:102300000004000C186010BD0000C8423333334095
:102310008400054000FF7F4784100540F0B5C646A5
:10232000264B00B51E68040030000F0004F014FDB9
:10233000011C234804F0C5FC051C200004F00CFD22
:10234000011C281C04F0BDFC804604F05FFDC5B2F2
:10235000280004F007FD011C404604F0ACFC83217A
:10236000C90504F0C2FC04F051FD2D01154A3304E7
:10237000C0B21B0C054395663800536704F0ECFCB3
:10238000114904F09EFC114904F07EFE071C200058
:102390000F4B70430F491D6803F03AFC04F0DCFC5E
:1023A000391C04F0A2FC04F031FD000468400A4B23
:1023B000000C0004186080BCB846F0BD6C11002011
:1023C000286B6E4D000005400000C8426666E63F7F
:1023D000700005401027000070100540D0231B0638
:1023E0005868704700B585B001F0A6F8064B074A5B
:1023F000029300230193064B009301235B4201F0FB
:102400009FF805B000BDC0468017002018FCFFFFF4
:1024100029200010F0B5DE4657464E4645460022BC
:1024200088218024E0B5304B304885B058509A67F9
:102430001A5104341A5110325850DA670F3A84395D
:102440009A670C2000F0CAFB294B2A4A1B680D2012
:102450001B041B0C136002F05FF80A2001F0DCF98A
:10246000254803AB02AA01A900F0FCFA002803D119
:102470002248214901F0F6FD039A0299019800F0E3
:10248000B5FAD0231B06002401261727984602E040
:102490000134202C13D03500A5402F42F8D005215F
:1024A000280000F09BFB33004246AB4001219362C1
:1024B00028000022013400F0A9FB202CEBD1D0260B
:1024C000002504271F3C360604E0202C18D00134D8
:1024D0000135E4B2012DF8D10521022000F07EFB88
:1024E0007762B761F3E7C04600000540FFFF0000D8
:1024F000840005408410054090D00300E4200110C2
:1025000005F0AAFB1F211A2000F068FB0022002121
:102510001A2000F07BFB00211A2000F089FB9C238D
:10252000FD4DFE4A9846EA508C27002394214646EA
:10253000EB5189466B50043108006B50AA5110339F
:102540000C3E9B46AB510F3BEB518A468A3894397F
:1025500000F044FB002188238022F048E850A9675E
:10256000A9500432A9505946E850873BE9670D202D
:10257000AB670C3900F032FB4046E84A00232A5092
:102580004846EB512B5050462B50404601212A50D3
:102590005846A851E9510138033100F01FFBE049CA
:1025A000E04805F0DDFAD0270521042000F016FBF5
:1025B00058463F067862B861543001F02DF958460C
:1025C0007136FF3678610521073800F007FB7E621F
:1025D0000521052000F002FB7C620121062000F0AD
:1025E000FDFA0121072000F0F9FA684601217C611B
:1025F000017303A80100BC610122BE61C9480FF04C
:10260000CBFC7C61052001F007F936236846037393
:1026100003A8BC610100BE610122C2480FF0BCFCEE
:102620007E610122C049BF480FF0B6FC35236846E1
:102630007C61037303A8BC610100BE610122B9483B
:102640000FF0AAFCB94B7E6119000122B5489A46E9
:102650000FF0A2FCB22368467C61037303A8BC613F
:102660000100BE610122AF480FF096FC50467E612A
:10267000011D0522AB480FF08FFC3A2368467C61B0
:10268000037303A8BC610100BE610122A5480FF0DD
:1026900083FC7E610122A649A2480FF07DFC26231F
:1026A00068467C61037303A8BC610100BE6101221E
:1026B0009C480FF071FC9F4B7E61190001229948E4
:1026C00099460FF069FCB72368467C61037303A841
:1026D000BC610100BE61012292480FF05DFC7E6189
:1026E000012295498F480FF057FCBB2368467C6157
:1026F000037303A8BC610100BE61012289480FF089
:102700004BFC7E6101228D4986480FF045FCC023B9
:1027100068467C61037303A8BC610100BE610122AD
:1027200080480FF039FC7E61012285497D480FF019
:1027300033FCC22368467C61037303A8BC610100BB
:10274000BE61012277480FF027FC49467E610122D5
:1027500074480FF021FCC32368467C61037303A80F
:10276000BC610100BE6101226E480FF015FC7E6164
:10277000012274496B480FF00FFCC42368467C614A
:10278000037303A8BC610100BE61012265480FF01C
:1027900003FC7E6101226C4962480FF0FDFBD023EF
:1027A00068467C61037303A8BC610100BE6101221D
:1027B0005C480FF0F1FB7E610222644959480FF03A
:1027C000EBFBC62368467C61037303A8BC61010070
:1027D000BE61012253480FF0DFFB7E6101225C499C
:1027E00050480FF0D9FBE02368467C61037303A8CF
:1027F000BC610100BE6101224A480FF0CDFB7E6141
:102800000E22544947480FF0C7FBE12368467C611C
:10281000037303A8BC610100BE61012241480FF0AF
:10282000BBFB7E610E224C493E480FF0B5FB2123D5
:1028300068467C61037303A80100BC610122BE618C
:1028400038480FF0A9FB7C61732000F0E5FF1123ED
:102850006846037303A8BC610100BE6101223148D0
:102860000FF09AFB292368467C61037303A8BC61BF
:102870000100BE6101222B480FF08EFB2A2368461F
:102880007C61037303A8BC610100BE61012225487D
:102890000FF082FB0C208446E24451467E61042204
:1028A00020480FF079FB2B2368467C61037303A853
:1028B000BC610100BE6101221A480FF06DFB514658
:1028C0007E61042217480FF067FB2C2368467C6169
:1028D000037303A801220100BC611248BE610FF01E
:1028E0005BFB7C610820BC617E6100F0B5F9802350
:1028F0005B001A4CBB621A4F21683868FFF76EFC08
:102900003A68184800261018411E8841164BC0002E
:102910001E6023682AE0C04600000540FFFF00005B
:1029200000127A0000C00340182101105C21011040
:102930001C21011020210110242101102821011047
:102940002C2101103021011068B701103421011031
:10295000382101103C2101104C210110BC8F0020B6
:10296000641100200000E0AFC41A0020194CC01808
:10297000C1030C43A02104339B00D218C9050E608B
:102980004A608E600C610124134B01211C6000F031
:10299000DBF90B20114900F0F1F901210B2000F0C7
:1029A000D3F95B460E4A6E660421EE660B202E6755
:1029B0006A67AB666C6600F011F90A4B0A4A1B683D
:1029C0001B0C1B04136005B0F0BCBB46B246A94605
:1029D000A046F0BD1900400004240050352000102E
:1029E000FFFF00007000054070100540F0B583B097
:1029F00005000E00140000F085F9002801D003B096
:102A0000F0BD154F01223B0001210097053001F078
:102A100047FB33002A0000940121104801F028FDF3
:102A200021002800714303F0F3F804000C4B00224E
:102A300000930221042001F033FB23000022012136
:102A40000094052001F02CFB3B000222002100979E
:102A5000062001F025FBD2E7006CDC02008002407A
:102A6000001BB700F0B5DE4657464E464546E0B57A
:102A7000070085B0042003930191029201F0F2FC5B
:102A8000FA21890003F0C4F832238246FF339946C5
:102A900086005644B6014F4B4F4AF3180724934221
:102AA0000ED901235B429C465346E144F61A4B463D
:102AB000002BF0D100205DE0002900D186E0062443
:102AC00021003000614303F0A3F8874242D0631E27
:102AD0009846012CE5D01D0065433000290003F025
:102AE00097F887424DD0A31E9B46022C4FD02D1B3A
:102AF0002900300003F08CF887424AD0E31E9B4641
:102B0000032C61D02D1B2900300003F081F887428F
:102B100043D0231F9B46042C45D02D1B2900300099
:102B200003F076F8874240D0631F9B46052C42D0C5
:102B30002D1B2900300003F06BF887423DD043463F
:102B4000052B3FD03000E91F03F062F88742B3D075
:102B50000624B5E70029BAD1A04673019B1B9B0050
:102B6000019A9B19DB00136042460120029B1C6006
:102B7000039B1A6005B0F0BCBB46B246A946A0460E
:102B8000F0BD0029E9D0A31E9B46022CAFD1012441
:102B900096E70029B2D1D846DFE70029FBD0231FF2
:102BA0009B46042CB9D103248AE70029F3D0631F84
:102BB0009B46052CBCD1042482E70029EBD0434678
:102BC000052BBFD105247BE7022479E70123984632
:102BD000C3E7C046508EF4FF50F80C00094A10B508
:102BE00094464024830063441A68C00062408034E5
:102BF00014408022520113431C60034B9C466044E6
:102C0000416010BD04C0014000400140074B8000FE
:102C10009C4660440368C90092000A435A400C2352
:102C20001A4080235B0103431A60704704C00140CF
:102C3000084B80009C466044002905D08023402238
:102C40009B0103431A607047C02340229B0103434A
:102C50001A60F8E704C001400123D0228340120625
:102C600093629361094A40219446830063441A6841
:102C7000C0004A4080311140802252011343196044
:102C8000034B9C46052360444360704704C00140E9
:102C900000400140EFF3108072B6034A1368002B26
:102CA000FCD0BFF35F8F70472C0100D0BFF35F8F64
:102CB0000022024B1A6080F3108870472C0100D06C
:102CC00070B5EFF3108C72B60D4D2B68002BFCD055
:102CD000BFF35F8F0724CB08C618C05C01230C40EC
:102CE000A3401C000440034207D118433070BFF3D7
:102CF0005F8F2C608CF3108870BD100001F0B2F96A
:102D00002C0100D0024B18688007C00F7047C046E6
:102D100000C006400021044B044ABFF35F8F02C38A
:102D20009342FAD17047C046000100D0800100D024
:102D3000044A1078431CDBB2172B00D91023137000
:102D40007047C0467011002001238340002904D041
:102D5000034A1360034A13607047034A1360FBE79A
:102D600080E200E000E100E080E100E0024B103092
:102D70009B688000C058704700ED00E070B50D0002
:102D8000EFF3108672B60F4A1368002BFCD0BFF326
:102D90005F8F0D4B10309B6884001B590B4A934288
:102DA00003D09D4201D001F075F9074B9B681D517E
:102DB000BFF35F8FBFF35F8F0022024B1A6086F371
:102DC000108870BD240100D000ED00E0CD0100109E
:102DD000F0B5DE4657464E464546E0B50C0083B09A
:102DE000EFF3108A72B65A4A1368002BFCD0BFF377
:102DF0005F8F1022914681444A46564B96009B684D
:102E00009D59554B98469D4205D0A54216D0534F2B
:102E1000EB1B2F2B14D94F4B9B689D51BFF35F8F3A
:102E2000BFF35F8F00224A4B1A608AF3108803B009
:102E3000F0BCBB46B246A946A046F0BD1D00EAE77D
:102E4000012383409B465A46454B1B681A4000921B
:102E50005A46444B1A60BFF35F8FFDF704FA0190A6
:102E6000002803D0814501D001F014F901232A0084
:102E70009A4393689C4208D15FE04B005B189B002B
:102E8000FB189968A14211D01A0006215156002959
:102E9000F3DA009B002B05D05A46334B1A60304BB7
:102EA0001A60B8E75A462F4B1A60B4E70621595604
:102EB000002921DB4A00501880003C188046A06899
:102EC0009860E079D871062020569871002824DB9C
:102ED000A488F81A6405241544440019E024000568
:102EE000400D240220439880204B521818789200FD
:102EF000BA1890711970CCE70199002910D1FF31EF
:102F000091711B49918019490A789A71194ADB1B02
:102F10005B415A43120D0A70BBE7BD200002E2E795
:102F2000154A1649D21A083A5002400D01439980B9
:102F3000134952080A43DA80ABE7062151561300C1
:102F40000029B7DA019A002AEAD14546DBE7C046F4
:102F5000240100D000ED00E0CD010010741100202C
:102F600000E100E080E100E080E200E0B1920020BA
:102F700000BDFFFFAAAA0000AE11002000F0FFFF75
:102F800000F8FFFFF8B5012504000543FDF76BF9D4
:102F9000EFF3108C72B6214A1368002BFCD0BFF3FC
:102FA0005F8F1F4E2100B7681E4A1F4B891A494187
:102FB0004B431B0D59B28300F858A8421CD006237E
:102FC000D3568B421CD01223D3568B4222D01E23C1
:102FD000D3568B4220D02A23D35603208B4210D0C5
:102FE000124B1A781970A271BFF35F8F00220B4B3E
:102FF0001A608CF31088F8BDB2680D48D050EFE726
:10300000002043001B189B00D218FF239371094B2B
:103010009380E5E70120F4E70220F2E7240100D0E5
:1030200000ED00E074110020AAAA0000B192002077
:10303000CD01001000BDFFFF054B064A1360064A94
:10304000136053609360D360136153619361704761
:103050008080808000E400E004E400E0024B9C46B5
:1030600061448900016070474000003483680B4868
:1030700010B58446614462441201090159189B1835
:103080005C684A680120944201D802D00020C0B296
:1030900010BD1A680B689A42F9D8F7E7FFFFFF0FD7
:1030A00010B508000B690C009847002802D0206872
:1030B000616810BDE06000210020FAE70A4B196842
:1030C000EFF3108072B60A68002AFCD0BFF35F8F5E
:1030D0001B68BFF35F8F00221A6080F3108840BF27
:1030E000002000217047C04698920020F8B557464E
:1030F00045464E46DE46E0B599460CAB1C780DAB16
:103100001B78070090469A460568002C44D1AC7B9A
:10311000002C3BD0660029683619033E89194B788C
:10312000AB73002B00D1EB7300238B704B700B70D3
:103130002E4BE218BB6812019B1842461A604A46A1
:103140005A600A9A9A600B9ADA6000238B704B706F
:103150000B706B7B9B46002B32D022005946A8682F
:103160006B68984700281DD05B46584629685B006D
:103170005B448E19033BB070CA18CB5C002B00D0A7
:1031800073705B4614706B735C451AD0F0BCBB4621
:10319000B246A946A046F8BD660029683619033E26
:1031A0008919C5E75B465B002A685B44033BD3187B
:1031B0009C709119925D002A00D05A705B460B708A
:1031C0006C7342464B46387D00F034FC051E02D03D
:1031D0005346002B04D00E9B002BD7D01D70D5E793
:1031E0002100386800F04EFEF5E7C046FFFFFF0FF4
:1031F000F0B5DE464E46574645460023E0B58DB055
:103200000A936B4B8200D3580B90994600239B4640
:103210004B46079300F084FB079C06000F00626892
:10322000EFF3108572B61368002BFCD022000794D0
:10323000BFF35F8F2468637B9946002B66D092684A
:103240005C4B90464B441B01984443461A685B68AC
:1032500010001900801BB94100295EDD0B9800F0B9
:10326000E9FB00230026984600279A46079C6368DE
:10327000BFF35F8F5A461A6085F310885346002BC0
:1032800008D10028C6D10DB0F0BCBB46B246A94655
:10329000A046F0BD0A9B414618024B461843D04752
:1032A000089009916268EFF3108572B61368002BDD
:1032B000FCD00794BFF35F8F0899099A002A47DB77
:1032C000114303D0079B1B69002B5CD1079B1B6834
:1032D000D97B002906D01A6848004118521849467F
:1032E000033A51704A46DA734B46079A013BD1685C
:1032F000CA5C0132CA545B46079A13615368BFF334
:103300005F8F5A461A6085F3108883E700230026F2
:10331000984600279A460020A8E7002901D10028F6
:103320009CD10021200000F02FFD43461E685F68FD
:103330009B68079A9A464346DB689846D3684B4495
:10334000013B1B780A931B020343136100208DE7A6
:103350002369002BBAD033003C005B1A94411A0059
:103360002300A74219D89F421BD05946049101213E
:1033700003914946029141460191514607980091B7
:10338000FFF7B4FEB7E700F0CBFA089A099B0600F6
:103390000F0092197B419942E5D901225242D3177D
:1033A000E3E79642E1D901225242D317DDE7C04656
:1033B00084920020FFFFFF0FF8B557464E46454662
:1033C000DE46E0B5404D81468A466A68EFF31088D4
:1033D00072B61368002BFCD0BFF35F8F2E68B47BEE
:1033E000002C38D0670033683F19033FDB195A7847
:1033F000B273002A00D1F273344AA118AA680901F5
:10340000521849461160514651603149916000217E
:10341000D160997059701970737B9B46002B36D020
:1034200022005946B06873689847002821D05B464F
:10343000584631685B005B44CF19033BB870CA182B
:10344000CB5C002B00D07B705B46147073735C45C3
:103450001ED0002627E06B68BFF35F8F1C6088F3E7
:10346000108801204042F0BCBB46B246A946A046A7
:10347000F8BD5B465B0032685B44033BD3189C702D
:10348000D119D25D002A00D05A705B460B7074735C
:103490004A465346287D00F0CDFA061ED9D02100B9
:1034A000286800F0EFFCEB681B19013B19786B688A
:1034B000BFF35F8F00221A6088F310880020002E6F
:1034C000D1D108022043CEE7BC110020FFFFFF0F3F
:1034D000BD30001010B5124C6368002B04D00A21D7
:1034E0001048FFF7BBFD10BD23000F4A10212068D4
:1034F00000F062FB032000F007FA032000F00AFB53
:1035000003200A4900F050FAFFF712FC084B9C46D2
:10351000032360442375074B80006060DC60DEE7B6
:10352000BC110020989200206D300010F131001085
:10353000400000348492002000487047BC110020F5
:10354000F0B557464E46DE4645461100E0B585B01B
:1035500006009C46109F194300D1EEE06146DB1740
:103560000193009353401C00019B4B401D000098A9
:103570000199241A8D4163460E997B600F9B3A6036
:103580007B61BE60396100F0CBF902000B00A4182A
:103590005D4100940195A94200D9D8E000D1D2E064
:1035A0000023B9469A466F4B03937268EFF3108B72
:1035B00072B61368002BFCD0BFF35F8F3568AC7B0D
:1035C000002C00D188E067002B683F19033FDB190E
:1035D0005A78AA73002A00D1EA73634AA118B26824
:1035E0000901521800980199106051600399916087
:1035F0004946D16000229A705A701A706B7B9846C7
:10360000002B00D181E022004146A8686B689847F2
:10361000002800D16BE04346404629685B004344E4
:10362000CF19033BB870CA18CB5C002B00D07B705D
:10363000434614706B73444568D0F36872681B1975
:10364000013B1B78BFF35F8F002111608BF3108863
:103650005246002A0DD101324F4692461B022343A7
:103660005046FB6005B0F0BCBB46B246A946A0463A
:10367000F0BD4B4648461B699847071E02D14F468E
:103680000023EDE74B461C685D6823002B4364D0A4
:10369000002D0CDA0098019902000B00121BAB41BF
:1036A000994212D840D000920193BA467DE700F0CB
:1036B00037F902000B00A4185D4100940195A9425E
:1036C00003D8F2D100998A42EFD901235B42DC177B
:1036D00000930194BA4668E74F467368BFF35F8F63
:1036E0001C608BF3108800239A46013BB8E74346E1
:1036F0005B002A684344033BD3189C70D119D25D08
:10370000002A00D05A7043460B706C73307D009ACB
:10371000019B00F08FF98246002800D18DE721003F
:10372000306800F0AFFB88E700999142BBD90123D4
:103730005B42DC1700930194CCE7002301240025B1
:1037400001229C4617E700998A4200D828E7012306
:103750005B42DC170093019422E7B84600234F46F2
:10376000C2467DE7A1300010FFFFFF0FF0B5040057
:103770000D0006267642F717C64636196F4100B58A
:103780008F4213D810D000F0CBF832003B00121A51
:103790008B41002B14DC002B37D02900200000F0D7
:1037A000F3F880BCB846F0BD8642ECD9002600276D
:1037B00000F0B6F832003B00121A8B41002BEADD14
:1037C00030003900FFF7F8FD0028E6DB00239846BB
:1037D000BC460F4A0F4F7B6A9C4504D8B96A8E429B
:1037E000DBD99C45D9D11168EFF3108072B60B6814
:1037F000002BFCD0BFF35F8F1368BFF35F8F414690
:10380000196080F3108820BFE5E7002AC5D0D7E70C
:10381000989200200040054070B5060000F080F846
:10382000FA2204000D00002330000021920003F072
:1038300025FA001969418D4205D802D0FFF796FF9D
:1038400070BD8442FAD901204042C117F6E7C04654
:10385000F0B5D6464F464646C0B5EFF305823F2346
:10386000134018001038EFF3108C72B620490A6824
:10387000002AFCD0BFF35F8F0122170087401D4C48
:103880001600A24667631C4C2578A0462C00C44055
:103890002640224209D1BFF35F8F0E608CF310885F
:1038A000E0BCBA46B146A846F0BD5246566A134A35
:1038B0008400A25896420ED34246114BBD43E358B2
:1038C0001570BFF35F8F00220A608CF31088002B05
:1038D000E6D09847E4E70B4A9B00904643441A68B9
:1038E0001A60BFF35F8F00230B608CF31088D7E75B
:1038F000280100D000400540B39200209C92002097
:1039000088910020D03F054010B5034B01001800FE
:10391000024AFFF7D5F910BDB092002008A50110AA
:10392000034B596A0A00986A596A8A42FAD1704769
:103930000040054070B504000D00124A536A19009A
:10394000966A536A8B42FAD13000190024184D410F
:10395000AB4211D80ED02B000A494A6A9A42FCD3D6
:1039600007D1084A02E0516A994202D1916AA14204
:10397000F9D370BDA642EED9012301246442E517B4
:103980005B42E9E700400540064A536A9942FCD889
:1039900007D1044B02E05A6A914202D19A6A8242EC
:1039A000F9D370470040054070B504000D00EFF3F7
:1039B000108672B61A4A1368002BFCD0BFF35F8FD3
:1039C000002D1BD02000FFF7D1F9164981420AD003
:1039D0002000FFF7D3F901212000FFF7B5F90123FB
:1039E000A340114A1360114BA400E550BFF35F8F51
:1039F00000220B4B1A6086F3108870BD0121A14094
:103A00000A4BA200D5500A4B20001A788A43054978
:103A10001A70FFF7DDF900212000FFF795F9E5E7BF
:103A2000280100D0513800103860054088910020EE
:103A3000B3920020F0B54F46D6464646C0B50700C3
:103A40002F4C616A0D00A66A616AA942FAD18B42C5
:103A500008D805D00120E0BCBA46B146A846F0BD62
:103A6000B242F7D9EFF3108A72B6264801680029EE
:103A7000FCD0BFF35F8F0125BD402349204C884611
:103A8000097889462943C9B28C4641466046087088
:103A9000391D890065630A511C49B8004350216AE9
:103AA0000020294219D0616A0800A66A616A814231
:103AB000FAD18B4219D801D1B24216D8CC451DD0CB
:103AC0000F4B1F221D625D6301233A409340104A51
:103AD0000120136043464A461A70BFF35F8F0022ED
:103AE000084B1A608AF31088B5E70020BFF35F8F98
:103AF0000022044B1A608AF31088ACE70120ECE73F
:103B000000400540280100D0B39200209C92002084
:103B100080E200E0EFF3108C72B60A490B68002BCC
:103B2000FCD0BFF35F8F01238340074A074813622D
:103B300002789A430270BFF35F8F00230B608CF30F
:103B400010887047280100D000400540B392002043
:103B500070B5050014001600002915D00C00002ACD
:103B600012D080686B689847296800280ED07300CF
:103B70009B196200033B1219CB18033A9C708818FA
:103B80008A5C002A15D10670200070BD63001B19E5
:103B90007200033B9219CB18033A9E7088188A5C16
:103BA000002A02D104703400EEE75A700470340029
:103BB000EAE75A700670E7E730B583600023CCB2BD
:103BC00043730133047342608373C4730D00006850
:103BD000012C06D9421C0133DBB2137003329C4224
:103BE000F9D1FF2129404B005B18C018002303388E
:103BF000437030BDF8B505000C1E07D063000168A6
:103C00001B19033BCB185A78002A01D12000F8BDBC
:103C1000500080180338091800204F7848702100A0
:103C200058702800FFF794FF390006002800FFF7BE
:103C3000E1FF0400002EE9D0002826D03100220048
:103C4000A8686B689847296800280FD063001B1983
:103C50007200033B9219CB18033A9E7088188A5C55
:103C6000002A00D05A7004703400CFE773009B190B
:103C70006200033B1219CB18033A9C7088188A5CC7
:103C8000002A00D05A700670C0E73400BEE7C04674
:103C9000F0B557464546DE464E46E0B50D006B0092
:103CA00001685B19DF1E0400C85D83B00192CA1968
:103CB00000284CD043001B18033BCB185E78B44659
:103CC000002E16D1019E002E3ED0E67B002E04D0A1
:103CD00073009B19CB18033B5D70E57300282FD14F
:103CE0000023537003B0F0BCBB46B246A946A046C1
:103CF000F0BD72006244033A8A1851788846002168
:103D0000517089465970320001002000FFF720FFF2
:103D100043468246002B07D05B0021684344033BA7
:103D2000CB185A78002A16D1424651462000FFF798
:103D30000FFF2168019BCA19002BC6D10028CFD0E4
:103D400043001B18033BCB1800219970C8E7019B67
:103D5000002BBAD1C4E750008018033809184878FE
:103D6000834648464870587041462000FFF7F0FEF1
:103D7000594680462000FFF73DFF414602002000E3
:103D8000FFF7E6FE8046CFE7F0B557464546DE46EC
:103D90004E46E0B583B00191457B04006B0000689E
:103DA0005B19DF1EC15DC21900294ED04B005B18A4
:103DB000033BC3185E78B446002E18D1019E002E36
:103DC00040D0E67B002E04D073009B19C318033B40
:103DD0005D70E573002931D10023280053706173B1
:103DE00003B0F0BCBB46B246A946A046F0BD720087
:103DF0006244033A82185078804600205070814611
:103E0000587032002000FFF7A3FE43468246002B85
:103E100007D05B0021684344033BCB185A78002A43
:103E200017D1424651462000FFF792FE019B010048
:103E30002068C219002BC4D10029CDD04B005B18DB
:103E4000033BC31800209870C6E7019B002BB8D134
:103E5000C2E750008018033809184878834648465E
:103E60004870587041462000FFF772FE5946804660
:103E70002000FFF7BFFE414602002000FFF768FE6A
:103E80008046CEE770B5040000292CD0437B8B42DE
:103E90002ED0056848004018033828188278002A78
:103EA00021D053009B18033BEA5CEE188A4202D1F2
:103EB0001BE0002A08D053009B18033BEB185A78EC
:103EC0008A42F6D142785A700023012283704370EF
:103ED0002000FFF7DDFE617B02002000FFF738FEC7
:103EE0006073012000E0002070BD43783370EBE781
:103EF00001221900FFF7CCFE60730120F4E7C046F1
:103F000010B50400FEF714FF01002000FFF7A6F82B
:103F1000FF232371BFF35F8F10BDC04610B50400AF
:103F2000FEF706FF01002000FFF798F8FF23A380AB
:103F3000BFF35F8F10BDC0462C4B2D4A70B51A6081
:103F40002C4A2D4B2D491A6014008B689C43FBD1E1
:103F50002B4D2C4EB54208D2013E761BB60808CD3B
:103F6000984723000134B342F9D100F023F9264ADF
:103F7000214B1A60214A9368DB43DB01DD09002BEA
:103F8000F9D14022214B224C224E9A675A671A6778
:103F9000DA66B44208D223682000002B20D008340F
:103FA000FFF7BCFFB442F6D31B4C1C4EC022B168D5
:103FB000200003F053FAB460FEF7ACFEFFF73CF8C4
:103FC000FFF788FA164C174EB44208D2013E361B52
:103FD000B60808CC98472B0001359E42F9D170BD38
:103FE0000834FFF78DFFB442D5D3DDE700E0004091
:103FF000BFCDFBFEFE7F3C0000F0004000C0004053
:104000006017002070170020FFFFFF0100F0014043
:1040100058170020601700200000002000ED00E08D
:10402000701700208017002000BEFDE7094A03003A
:104030001068002805D00849C3188B4207D81360C0
:10404000704706480449C31810608B42F7D9012015
:104050004042F5E74C92002000000420B49200207A
:1040600000BEFDE70FB400B5084883B003F03CFB89
:10407000049B002B07D005A91800019101F048FD11
:10408000034803F031FB00BEFDE7C0462CA501103C
:10409000ACAA011010B50148FFF7E4FF3CA50110E0
:1040A000F0B54546DE4657464E46E0B583B0019230
:1040B0000C9A050088469A4200D974E01A0E93467D
:1040C0001E023000002359460C9A01F0E3FD374BE5
:1040D0006C009C466419A400644463680700834232
:1040E00000D260602B1FDBB29946012B35D9C0236B
:1040F00080229B01234312011A602D4BAD005959B8
:104100009A46002905D0586901F082FD0130013836
:10411000FDD1019B22685B015340E0221A408023BD
:104120005B0123431A604A46012A2FD9802380224B
:104130009B01234312011A60300000233A005946C4
:10414000676001F0A7FD53465851012003B0F0BC51
:10415000BB46B246A946A046F0BD4346012BC6D198
:10416000C02303229B0123431A60023AA3681A4228
:10417000FCD0019B22685B015340E0221A4080235F
:104180005B0123431A600A4AAD0092464246216809
:10419000514003220A401A60012243469A40A36814
:1041A0001A42FCD0C2E70020D0E7C04600800040A1
:1041B000CC91002010B50C2082B000F0BBF9FEF7C6
:1041C000A1FD00280ED0854B854A1A605A609A607E
:1041D000DA601A615A619A61DA611A62814A5A6236
:1041E00002B010BD804CA06700F0ACF901227F4BFB
:1041F0001A60636C012BFCD103227D4B1A607A4A52
:10420000936B012BFCD1013301217A4A7A48009348
:10421000043300F02DF90523784A009301217848F2
:1042200000F026F9774B5A68FF2A02D88022520004
:104230005A6080226E4B694C12011A602169002974
:1042400005D0606901F0E4FC01300138FDD1E022C5
:104250006C4B6D4819680A4002600222196851408F
:1042600001320A40042102609A681142FCD0802188
:10427000664A09011160802252005A60644B236132
:10428000644B5968FF2900D85A6003220121574B1B
:104290001A60604A93681942FCD0E023106803401A
:1042A0005D480360126803234A4002211340594AC3
:1042B000036093681942FCD08021584B09011960B2
:1042C0008021574B490051606361564B5A68FF2A61
:1042D00000D859608022544B12011A60E16900290C
:1042E00005D0606901F094FC01300138FDD1E02374
:1042F0004C4A11680B404D490B6080214C4B090121
:1043000019608021364B49005160E361494B5A687E
:10431000FF2A00D859608022474B12011A60216A97
:10432000002905D0606901F073FC01300138FDD12E
:10433000E023404A11680B4040490B608021404B0C
:104340000901196080235B0053608022244BD20254
:1043500023623C4B5968914200D25A6080223A4B0A
:1043600012011A60616A002905D0606901F050FCF1
:1043700001300138FDD1E023324A11680B40334946
:104380000B608021324B090119608023DB025360EE
:10439000144B63622F4B5A68FF2A02D880225200C6
:1043A0005A6080222C4B12011A60A169002905D0A5
:1043B000606901F02DFC01300138FDD1E023254A70
:1043C00011680B4025490B608021254B09011960BC
:1043D00080235B005360124BA36101E7CC91002066
:1043E000006CDC021BB70000008000403CB00040C5
:1043F00030B00040002F685900800240008C864792
:1044000000C00240308000403090004030A00040AA
:10441000001BB7003C8000403C9000403CA00040A6
:10442000405973075480004054B0004054900040FD
:1044300054A000406080004060B0004060900040A8
:1044400060A000406C8000406CB000406C90004068
:104450006CA000404880004048B0004048900040B8
:1044600048A00040014B8000C0587047CC9100200C
:10447000F8B504000C2017001D000E0001F0C8FB69
:1044800043011B1A9901C91AC9000918890138008A
:1044900001F0BEFB069B29041B0319432368002B74
:1044A00020DB194B194DE3185A4253418022520127
:1044B00094461B03164A63441360164A13601F0098
:1044C000AA689743FBD1C023221D9B0113432122DD
:1044D0002660A0601A602268002AFCDA0822E160E7
:1044E0001A60F8BD3F2322681340B342D9D1A368B4
:1044F0001B051B0D8342D4D1EE22E368D202134088
:104500008B42CED1EDE7C0460040FDBF00C0004069
:1045100000E0004000F00040044B00011B68044A2A
:104520005840F023034013607047C04600400640E7
:10453000005006408023024A9B000343D362704729
:1045400000800540AA23064A1B0113602F2305495A
:10455000D360054B19605368002BFCDA7047C046E6
:104560000040024000B0FA00006002409A4200D2CF
:10457000885470477047C046F8B557464546DE46F2
:104580004E46E0B598460A9B06009A460D9B0F00E2
:10459000934615009B0710D10B9B0C9A93420CD2AB
:1045A00013005C460B9A9D1A5D4422004346013479
:1045B00039002020B047A542F7D10B9C6319002C8D
:1045C00009D01D0053462A1B013C185D39004346A3
:1045D000B047002CF6D10D9B9B070ED55B46EC1A1D
:1045E0000C9BA34209D999462A0043463900202052
:1045F0000134B0470135A145F6D82800F0BCBB46D0
:10460000B246A946A046F8BDF0B54F464646D64646
:10461000C0B584B098460EAB1B78129F994694465D
:104620000D9C109B119EBA0725D4002E61D19C428F
:1046300000D3C0E001223A4092461F2C00D9B9E0D5
:104640000C9A551E302201E0202C03D001342A554B
:10465000A342F9D85246002A0DD0A6420BD90C9A93
:10466000551E3022202C02D155E0202C53D001348D
:104670002A55B442F9D1FA062DD57A0554D4002C26
:104680004ED10F9B102B00D188E00F9B022B19D02D
:1046900030230C9A012413704B46002B20D02D237D
:1046A0000C9A135501340C9B6246009303974346C2
:1046B00002960194FFF760FF04B0E0BCBA46B14631
:1046C000A846F0BD01240C9A6033137030220C9B75
:1046D0001B191A700134202CE5D04B46002BDED17B
:1046E0007B0730D43B07DED520230C9A13550134C9
:1046F000D9E7012215003D40AA463A421CD04A465D
:10470000002A2BD10C323A4228D19C42A5D21F2C30
:1047100096D9202E15D92024FA06C4D57A0503D4BB
:10472000A3421DD0B4421BD00F9B102B23D0022BD1
:104730000ED0202CB7D0C9E79C429CD21F2C00D8A9
:104740007EE7202497E72B230C9A13550134AAE720
:10475000202CA8D00C9B1B19013438E0013ED4E773
:10476000631E012C00D18CE70F9A102A25D0022A53
:104770002AD01C00AAE7BB0607D4202C93D00C9BA0
:104780001A19013478231370D3E7202C00D18AE75B
:1047900058220C9B1B191A700134CAE7BB0604D4BB
:1047A00078230C9A0124137090E758230C9A012463
:1047B00013708BE7202400265DE7023CBA06E7D49D
:1047C0000C9A12191C00DDE70C9A9246534462229F
:1047D0001A70AEE710B5002800D110BD02F034FF0A
:1047E000FBE7C046F0B5DE4657464E464546E0B5C7
:1047F0009BB09B46249B89469846259B0B900C9228
:104800004046424619009A4601F0D3FC002800D0E9
:10481000D8E0012240465146774B524201F0C4FC99
:10482000002800D0CEE0012240465146734B524250
:1048300001F0A4FC002800D0C4E000220023404680
:10484000514601F09BFC002800D0B9E14246534696
:104850000A9209938023289ADB001A400E92289A24
:104860001A4201D1062326930A9A099B1600134384
:1048700000D0C7E0289B002500261B0500D49BE143
:1048800000230D93269A0D9B9A4200DC9FE1D31AD8
:10489000013B26938023289ADB001A43002300273C
:1048A00028920D93279B0024BB4200D9DC1B0223D6
:1048B000289A1A400E92289A134203D07B427B41D9
:1048C0005B421C400D9B002B07D00A9809992A00D7
:1048D000330001F0F2FB0A900991002200234046C8
:1048E000514601F04BFC002805D08020000684468C
:1048F000099961440991289A414B0B9D13400493F7
:10490000269B0A9A0293099B0394009201934946BD
:104910005B4628000C9A00F08BF90400002F62D04F
:10492000289B220098061F23C0179843631C9846B3
:1049300049465B466530A8470D9A0025D317D41821
:104940005C40D30F9A46013F01E0202D13D00AAA04
:1049500094461F23200063440A2101355E1901F0AB
:1049600057F93031317020000A2101F051F9260049
:104970000400092EE9D805230693002304930A3383
:104980000393534605970B9F029312AB0093424645
:104990005B46494638000195FFF736FE0E9B040042
:1049A000002B20D00C9BC51A279BAB421BD91E00A5
:1049B00022005B46494620200135B8470134AE420B
:1049C000F6D810E0289B42460493279B4946039360
:1049D000269B0B9802935346009201935B460C9AD8
:1049E00000F026F9040020001BB0F0BCBB46B24624
:1049F000A946A046F0BDC046FFFFEF7FFFFFEFFFD7
:104A0000FFF7FFFF734B099F9C467800400D604401
:104A100001F0E2FB704A714B01F06DFB704A714B83
:104A200001F042FB3B03704A1B0B1A4304000D00CC
:104A3000300011006D4B002201F02DFB6C4A6D4BD4
:104A400001F059FB02000B002000290001F02CFBB3
:104A500001F0DAFB0D9001F0BFFB674A674B0400E1
:104A60000D0001F048FB0022654B01F01DFB01F039
:104A7000CBFB644A0600644B2000290001F03BFB9D
:104A8000040030000D000F9601F0A6FB5F4A604B5A
:104A900001F031FB02000B002000290001F0FBFABD
:104AA00002000B0006000F0001F025FB320004009D
:104AB0000D003B003000390001F0F6FA00221090A2
:104AC0001191544B2000290001F0F7FA0022524BBB
:104AD00001F0EAFA02000B002000290001F0EDFAD3
:104AE00000224E4B01F0E0FA02000B0020002900EA
:104AF00001F0E3FA0D008021040032003B000020A9
:104B0000C90501F0C8FA02000B002000290001F0DD
:104B1000CBFA02000B001098119901F0CEFA002296
:104B2000314B01F0C1FA3E4B0F9C9C46644400227D
:104B3000230501F0E0FA05000E0002000B000A98C0
:104B4000099901F01BFB00280AD00D9B2800013BAE
:104B500031000D930022304B01F0AFFA05000E003A
:104B6000C6270D992B0063318F42BF4128997F42A0
:104B70000437090500D495E6334300D182E6099C49
:104B8000284A2100284B0A9801F006FB002808D08B
:104B900000222100254B0A9801F0F0FA002800D0ED
:104BA00070E6269B002B00D17CE60E9B5A1E93419B
:104BB000269AD31A269375E6002304270D9371E6EF
:104BC00043460A9380231B065344099342E600237D
:104BD00026935FE601FCFFFFFB799F501344D33F10
:104BE000B3C8608B288AC63F0000F03F0000F83F42
:104BF00061436F63A787D23F71A379094F930A403E
:104C00000000E03F1655B5BBB16B0240EF39FAFE2C
:104C1000422EE63F00002C400000244000001840D7
:104C2000FF0300002D431CEBE2361A3F80842E4127
:104C3000F0B54E46DE4657464546E0B597B0994634
:104C4000209E219F229B8346984607910C923B0011
:104C500032003000390001F0ACFA002800D0ADE19C
:104C6000012230003900CC4B524201F087FA002873
:104C700000D003E1012230003900C84B524201F05C
:104C800093FA002800D0D9E0002230003900C44B4C
:104C900001F08AFA002800D0BBE000223000390081
:104CA000C04B01F06BFA002800D0B2E000220023D4
:104CB0003000390001F062FA002800D0D3E0002370
:104CC0000D93249B5B0501D40623984608AB9C46B4
:104CD0001722002430234146624404E00134135576
:104CE0000139202C01D00929F8D888463000390034
:104CF00001F08AFA4246AC4BD2009B181A685B68F6
:104D000005000892099301F067FA02000B003000D9
:104D1000390001F0C0F9089A099B01F0ECF90A90FA
:104D20000B9101F095FA824601F052FA02000B0055
:104D30000A980B9901F0AFF900229C4B0A900B9155
:104D400001F032FA002800D1E2E001239C46E2445F
:104D5000504601F03DFA02000B000898099901F055
:104D600013FA002802D000239A4601354346002B4F
:104D700000D18BE008AB17269C4608956644554643
:104D800014E001235B4243440A2128009A4600F0C4
:104D90003FFF013430313719397028000A2100F003
:104DA00037FF092D00D8D0E0D0460500202CE8D1EF
:104DB0000EAB98460323249A1340012B00D0E8E061
:104DC000239A2023002A1DD00D9A002A00D0FDE04E
:104DD00024990C320A4215D0239A013A2392239A3D
:104DE0009A4200D805E108AA94461721302261446E
:104DF000202B07D023980133CA54834200D1E9E025
:104E0000202BF7D1249A01930392239A43460292CE
:104E10001EE0249B58460493239B0096019703931E
:104E200043460C9A029307994B46FFF7DBFC17B0F9
:104E3000F0BCBB46B246A946A046F0BD249B5B072A
:104E40000ED403225A4B2499019203912399029183
:104E5000009358464B460C9A0799FFF78DFBE6E7FF
:104E60000422544BEFE73B0032000020002101F008
:104E700012F9012306000F000D9322E7249B0393F0
:104E8000239B0293042301934B4BE1E7280001F09D
:104E9000A3F902000B003000390001F0FCF8434B8D
:104EA000002206000F0001F069F90EAB98460028B9
:104EB0000AD10022300039003C4B01F075F900287E
:104EC00002D1EB0700D50135202C00D172E708AAEA
:104ED00094461723280063440A2101341E1900F068
:104EE0006FFE3031280031700A2100F069FE051E86
:104EF000EAD10323249A1340012B6DD0202C48D0F3
:104F00000D9B002B14D02D224146631C0A5579E7D6
:104F100000220A980B99254B01F030F9002800D0A7
:104F200024E75346002B30D101239C46E2441DE781
:104F3000249B5B0724D4249A2300120700D461E742
:104F40002022414601330A555CE75746089D202C34
:104F500000D12DE7220030214046002F09D0013238
:104F6000B154202A00D123E7831A013BE318002B18
:104F7000F5D10EAB98462E234146541C8B54A3E723
:104F80002B224146631C0A553CE7DB0700D4EDE6C3
:104F9000CAE7202336E7C046FFFFEFFFFFFFEF7FA2
:104FA00065CDCD4165CDCDC100A701100000E03F2A
:104FB00050A5011048A5011058A50110249B03938A
:104FC000239B0293032301930C4B41E7239A013A5D
:104FD000239217E7040091E7239B002B8ED00D9BB3
:104FE000002B08D10C2224992300114200D1F6E6AF
:104FF000F2E61C0082E72300EEE6C04654A501104D
:10500000F0B5DE4657464E464546E0B5A1B01C0019
:105010002A9B92460993B94AB94B81468B461A603E
:10502000002900D12BE120780027002800D12DE1B4
:10503000B44B5E460893B44B0C9309E03A005346D8
:1050400031007D1CC8472F0001342078002871D022
:105050002528F3D110239B460C3B9846023B0022A7
:105060009C460134207825000300203BDBB2102B46
:1050700003D808999B00CB589F460300303B092B6F
:105080006BD9002398462A2800D18AE000230A938E
:105090002E2800D176E00300683BDBB2122B1CD82F
:1050A0009A499B00CB589F46012301341A43D9E704
:1050B000634601341A43D5E7434601341A43D1E726
:1050C0005B4601341A43CDE7082301341A43C9E78C
:1050D00080235B0068781A43013567280AD82428A2
:1050E0001DD90300253BDBB2422B18D80C999B003D
:1050F000CB589F460300693BDBB20F2B0FD8012131
:10510000834C9940A4460C400B946446214200D045
:1051100002E20A2B00D1E1E0072B00D1B8E07B1CB2
:1051200098463A00534631006C1CC84720784746E1
:1051300000288DD1B3463C00BA4501D853465F1EC6
:1051400053463A0059460020C847200021B0F0BC21
:10515000BB46B246A946A046F0BD00230100980018
:10516000C018013540004018297803000800303885
:10517000303B0928F3D99846002308000A932E28CB
:1051800000D088E780236878DB001A430300303BB7
:10519000691C092B00D807E12A2800D116E10D006F
:1051A00079E7099B02CB8846002903DB60780993E5
:1051B000651C6BE702210A434146494288466078F4
:1051C0000993651C62E768786C2800D123E280238C
:1051D0005B001A43013580E780239B0068781A43FF
:1051E00001357AE76878682800D11AE28023013512
:1051F0001A4372E7462800D18BE10721099B0492EC
:10520000424607338B43190003920A9A484602929A
:105210000CC90092019309913A0053463100FFF7FF
:1052200007FD6C1C070010E77B1C98463A005346AC
:1052300031002520C84747466C1C06E7920700D47A
:1052400031E2099B3A0001CB31009B46C0B2534684
:10525000C84743467C1C4744012B00D8FBE2A846C4
:105260004D4622005346013431002020A847BC425D
:10527000F7D1A9465B46454609936C1CE5E6254BEC
:10528000207899460027002800D0D1E6002453E773
:10529000099B190008C98846002B00D1A6E02121EE
:1052A0000A43934610A98C461F220F216244099598
:1052B0008C4615000B9C02E0202C0CD0130060469D
:1052C000184001003731092800D807390134295521
:1052D0001A090F2BF0D8099D0B9490E0099B02CB83
:1052E00012930A9B8B46002B7AD1087802214942FF
:1052F00000281AD001315C4659440FE001500010DB
:105300005092002060A50110F0A50110A4A5011085
:1053100041900000754500108C4203D06378013441
:10532000002BF9D15B46E31A0B9380231100DB00BD
:10533000194009911A4204D00A9B0B99994200D94D
:105340000B930223190011400D91134200D18BE100
:10535000002800D173E1099B002B00D142E10A9B98
:105360003A009C465B46BC44DB1B64469B464B466E
:105370000994A9461D0009E053463100571CA8476F
:105380005B46D85D002800D155E13A009442F3D144
:105390002B004D469946099F0D9B002B00D04EE1F6
:1053A000129B6C1C099350E6002304009800C0185F
:1053B0000131400000190C78030020003038303BE8
:1053C0000928F3D920000D000A9364E6099B0235F1
:1053D00001CBC143C91708400A90099328785AE6BF
:1053E00008780028A1D00A9B591E83E710211000DD
:1053F0008843113108438346520500D452E75B4687
:105400000693082305930A9B3A0004931023039301
:10541000002302930B9B3100019318AB0093484685
:105420005346FFF7F1F8434607006C1C09930CE65E
:10543000202301009943472904D180231B011A43EB
:1054400002239843452801D120231A430721099BB1
:105450000492424607338B43190003920A9A484646
:1054600002920CC90092019309913A00534631000F
:10547000FFF7B8F96C1C0700E7E5622800D1F6E1F8
:105480006F2800D132E1582800D1CFE010239A4391
:10549000063B0D93692800D024E10B92530546D5B5
:1054A00001230B9A9A430B92692840D064283ED07E
:1054B0000B9A802311009B0019408B461A4200D0A2
:1054C000DCE1802314005B001C401A4200D07BE228
:1054D00013005B0600D48BE1FF22099B02CB114035
:1054E0008B4609935B46002B00D08CE10B9A10335E
:1054F000110099430B91520500D484E100240B9BC9
:105500000693434605930A9B04930D9B0393002344
:1055100061E120231A4370E610230D937828ACD163
:105520000C23110099430B915205B9D4BCE70B9A97
:10553000802311009B0019408B461A4200D0D8E00E
:10554000802314005B001C401A4200D0E2E11300EB
:105550005B0600D527E1130009991B0600D495E2EC
:1055600008C91BB2D8171A18424092B20991934643
:10557000DA0F1392002B09D1802310220B99DB0044
:105580000B4091430B91002B00D01BE10B9A612340
:10559000920600D54123DBB210A90A3B1F228C469C
:1055A000129343466244A84614970D9D5F46159397
:1055B000B34616000AE03033DBB201343355AF4254
:1055C00000D24EE1202C00D14BE107002900380029
:1055D00000F01EFBCBB20929EDD9129A9446634420
:1055E000DBB2EAE75B46DB1B9B460B9B4C469946CE
:1055F0005346AA461D003A002B003100A0475B46E7
:105600000137D85D0028F6D14B460B932B00A146FD
:1056100055469A46C0E6C0239B00A8781A43023537
:105620005BE5C023A8781A43023556E520231A43C8
:10563000103B0D9374E72B004D469946ACE60B9B4F
:10564000BB46984500D8ABE647445C46A8464D4665
:10565000FF1A22005346013431002020A847BC42E3
:10566000F7D1A94645469BE60B9A531C904500D8B6
:1056700022E24346DB199C1A4B46A9461D003A001C
:105680005346013731002020A847A742F7D12B000D
:105690004D469946434601330B935B4618780028E4
:1056A00000D058E67CE64346012B00D802E27C1E7F
:1056B0004444A8464D463A00534601373100202065
:1056C000A847A742F7D1A9464546099B220001CB2E
:1056D00031009846C0B25346C8474346671C0993F9
:1056E0006C1CB2E4642800D1D7E619E708230D93B7
:1056F00016E70722099B07339343013294469C44E3
:10570000624609920CCB9C46DB17109311931098BC
:105710001199030053400E9364460B0063400F93AE
:105720000E9B0F9C1B1A8C410E930F946346DB0F4C
:10573000139300239B4663461A433BD00B9A612385
:10574000920600D54123DBB20A3B1293434610A9CF
:105750001F228C46002415934B466244B146149791
:10576000169527000E9C0F9D90460D9E17930CE0FA
:105770003032D2B243460137DA55AB4500D177E13A
:10578000202F00D177E104000D003200002320001B
:10579000290000F07FFAD2B2092AE9D9129B9C466F
:1057A0006244D2B2E6E7FF22099908C913401A0001
:1057B0000991DCE60B9A10231100994300240B9108
:1057C0005205BBD50B9B0693434605930A9B049356
:1057D0000D9B0393139B029318AB3A000194009323
:1057E000310053464846FEF70FFF6C1C07002CE4BF
:1057F00013001B0600D458E1099B04CB1204120CC1
:10580000934609936EE60B9A6123920600D54123D5
:1058100010A91F228C46DBB262440A3B13971496F0
:105820005F461600AB4612930D9D08E03033DBB2A5
:1058300001343355AF421DD3202C1BD00700290063
:10584000380000F0E5F9CBB20929EFD9129A944655
:105850006344DBB2ECE75B46270009936C1CFFF75F
:10586000F4FB159B45465E469846149FAAE7022323
:105870000D9355E65D46139F149E40E60722099B53
:1058800007339343013294469C44624609921A6856
:105890005B6810009B4613005A46134307D10B9ACE
:1058A0001033110099430B91520500D526E60B9A4F
:1058B0006123920600D54123DBB210A90A3B1F22C7
:1058C0008C461293434662441397159500245D4617
:1058D0000700B34690460D9E14930DE03032D2B2CD
:1058E000434601341A550023AB4200D1D4E0202CAA
:1058F00000D1D4E007000D00320000233800290059
:1059000000F0C8F9D2B2092AE8D9129B9C46624439
:10591000D2B2E5E7099B1A0008CA1592DA179C185B
:105920005440DA0F1492002B08D1802310220B99D7
:10593000DB000B4091430B91002B2BD10B9A612381
:10594000920600D5412310A91F228C46DBB2624487
:105950000A3B129713965F461600AB4609930D9DBE
:1059600008E03033DBB20137F355AC420ED3202FC1
:105970000CD004002900200000F04AF9CBB209291C
:10598000EFD9099A94466344DBB2ECE75D46139E77
:10599000BB46129F0B9B3A000693434605930A9B16
:1059A000310004930D9B48460393149B6C1C029397
:1059B0005B46019318AB00935346FEF725FE159BFB
:1059C00007000993FFF741FB099B10CB1493002CB0
:1059D00008D18023DB0011001340102291430B916A
:1059E000002B2BD10B9A6123920600D5412310A9DD
:1059F0001F228C46DBB262440A3B129713965F4625
:105A00001600AB4609930D9D08E03033DBB2013739
:105A1000F355AC420ED3202F0CD0040029002000F7
:105A200000F0F6F8CBB20929EFD9099A94466344FD
:105A3000DBB2ECE75D46139EBB46129F0B9B3A0020
:105A40000693434605930A9B310004930D9B4846F9
:105A50000393002302935B46019318AB00935346D4
:105A6000FEF7D2FD149B070009936C1CFFF7EDFABB
:105A7000A64200D884E6159B0E940F959846179B76
:105A80003C004E46169D9946149F9BE608C9D817C0
:105A90001A18424009916AE5BE4200D827E7149BD4
:105AA0005E469846139F159D29E5099B04CB9346B6
:105AB000099317E53C0008E60B93F0E50EB40122CC
:105AC00030B584B007AC08CC064D01000094280026
:105AD00052420394FFF794FA04B030BC08BC03B000
